:020000040800F2
:100000000040022039A10108C9A10108B1870108F7
:1000100000000000000000000000000000000000E0
:100020000000000000000000000000004FA90108CF
:10003000000000000000000061AA01089D8701087F
:10004000C9A10108C9A10108C9A10108C9A10108E4
:10005000C9A10108C9A10108C9A10108C9A10108D4
:10006000C9A10108C9A10108C9A10108C9A10108C4
:10007000C9A10108C9A10108C9A10108C9A10108B4
:10008000C9A10108C9A10108C9A10108C9A10108A4
:10009000C9A10108C9A10108C9A10108C9A1010894
:1000A000C9A10108C9A10108C9A10108F187010876
:0C00B0002188010851880108C9A101083D
:1000C00010B5064C2378002B07D1054B002B02D02E
:1000D000044800E000BF0123237010BDC80A0020BF
:1000E00000000000ECBF0208044B10B5002B03D049
:1000F0000349044800E000BF10BDC04600000000F6
:10010000CC0A0020ECBF020802780B78002A03D04A
:10011000013001319A42F7D0D01A70470023C25CF7
:100120000133002AFBD1581E7047000002B471460B
:1001300049084900095C49008E4402BC7047C0462A
:1001400003B47146490840004900095A49008E44E9
:1001500003BC7047002243088B4274D303098B42CF
:100160005FD3030A8B4244D3030B8B4228D3030C87
:100170008B420DD3FF22090212BA030C8B4202D329
:100180001212090265D0030B8B4219D300E0090A51
:10019000C30B8B4201D3CB03C01A5241830B8B425A
:1001A00001D38B03C01A5241430B8B4201D34B0343
:1001B000C01A5241030B8B4201D30B03C01A5241A8
:1001C000C30A8B4201D3CB02C01A5241830A8B422D
:1001D00001D38B02C01A5241430A8B4201D34B0216
:1001E000C01A5241030A8B4201D30B02C01A52417A
:1001F000CDD2C3098B4201D3CB01C01A524183092E
:100200008B4201D38B01C01A524143098B4201D367
:100210004B01C01A524103098B4201D30B01C01A92
:100220005241C3088B4201D3CB00C01A524183080C
:100230008B4201D38B00C01A524143088B4201D339
:100240004B00C01A5241411A00D201465241104699
:100250007047FFE701B5002000F0F0F802BDC0468E
:100260000029F7D076E7704703460B437FD400227E
:1002700043088B4274D303098B425FD3030A8B423A
:1002800044D3030B8B4228D3030C8B420DD3FF22A4
:10029000090212BA030C8B4202D31212090265D072
:1002A000030B8B4219D300E0090AC30B8B4201D325
:1002B000CB03C01A5241830B8B4201D38B03C01A6C
:1002C0005241430B8B4201D34B03C01A5241030BE3
:1002D0008B4201D30B03C01A5241C30A8B4201D394
:1002E000CB02C01A5241830A8B4201D38B02C01A3F
:1002F0005241430A8B4201D34B02C01A5241030AB6
:100300008B4201D30B02C01A5241CDD2C3098B429A
:1003100001D3CB01C01A524183098B4201D38B0117
:10032000C01A524143098B4201D34B01C01A5241BA
:1003300003098B4201D30B01C01A5241C3088B42FF
:1003400001D3CB00C01A524183088B4201D38B00EA
:10035000C01A524143088B4201D34B00C01A52418C
:10036000411A00D201465241104670475DE0CA0F63
:1003700000D04942031000D34042534000229C4623
:1003800003098B422DD3030A8B4212D3FC2289012D
:1003900012BA030A8B420CD3890192118B4208D303
:1003A000890192118B4204D389013AD0921100E065
:1003B0008909C3098B4201D3CB01C01A5241830979
:1003C0008B4201D38B01C01A524143098B4201D3A6
:1003D0004B01C01A524103098B4201D30B01C01AD1
:1003E0005241C3088B4201D3CB00C01A524183084B
:1003F0008B4201D38B00C01A5241D9D243088B42A1
:1004000001D34B00C01A5241411A00D20146634643
:1004100052415B10104601D34042002B00D54942A7
:10042000704763465B1000D3404201B5002000F0E6
:1004300005F802BD0029F8D016E770477047C0469E
:100440008446100062468C461900634600E0C046B0
:100450001FB501F0C3FE002801D40021C8421FBD12
:1004600010B501F003FE4042013010BD10B501F09F
:10047000B5FE002801DB002010BD012010BDC046E4
:1004800010B501F0ABFE002801DD002010BD0120F9
:1004900010BDC04610B501F02DFE002801DC002083
:1004A00010BD012010BDC04610B501F023FE00288C
:1004B00001DA002010BD012010BDC04684460800AE
:1004C0006146FFE71FB500F075FB002801D400214D
:1004D000C8421FBD10B500F0F5FA4042013010BD12
:1004E00010B500F067FB002801DB002010BD0120E3
:1004F00010BDC04610B500F05DFB002801DD0020F6
:1005000010BD012010BDC04610B500F003FB00284F
:1005100001DC002010BD012010BDC04610B500F068
:10052000F9FA002801DA002010BD012010BDC046F4
:10053000994201D1801A04D002D201204042704772
:1005400001207047002B11D1002A0FD1002900D1C2
:10055000002802D00021C943080007B4024802A1C4
:100560004018029003BDC046D5FEFFFF03B46846A5
:1005700001B5029800F0BAF8019B9E4602B00CBC8F
:100580007047C046F0B5CE469946030C9C4613040E
:1005900047461B0C1D000E0061460404240C80B568
:1005A0000700100C4B436543414360432C0CC018BB
:1005B00024188C46A34203D980235B029846C44486
:1005C000494679435643230C2D042D0C8919634465
:1005D00024046019C918C0BCB946B046F0BDC04675
:1005E0009E2110B5C905041CFFF798FF002803D110
:1005F000201C00F00FFE10BD9E21201CC90500F03C
:1006000065FC00F007FE80231B069C466044F2E771
:1006100070B500220C4B04000D00FFF745FF0028C9
:1006200004D12000290002F0D1FC70BD064B00224D
:100630002000290002F00CF902F0C8FC80231B0600
:100640009C466044F1E7C0460000E04170B50022DE
:10065000002304000D00FFF709FF002808D1200047
:10066000290000F00FF802000B001000190070BD07
:1006700080231B06E918200000F004F80023424202
:100680008B41F2E770B500220B4B0D00040001F026
:1006900017FEFFF7BDFF060002F002FD0022074B28
:1006A00001F00EFE02000B002000290002F0D0F83D
:1006B000FFF7AEFF310070BD0000F03D0000F041DB
:1006C00070B50600080002F0BDFC0022064B01F0E8
:1006D000F7FD0D000400300002F0E2FC2B002200C8
:1006E00000F046FE70BDC0460000F041F0B5574630
:1006F0004E464546DE46E0B504000D00924699465A
:1007000083B08B4230D82DD04946504602F0D6FDFA
:1007100029000600200002F0D1FD331A9846203B44
:1007200034D49B4653465A46934042461F00534694
:1007300093401E00AF423BD8AF4200D179E05B4608
:10074000A41BBD41002B00DA76E0002200230092BA
:10075000019301235A46934001930123424693405B
:10076000009329E08242CFD9002200230092019316
:100770000C9B002B01D01C605D600098019903B0B8
:10078000F0BCBB46B246A946A046F0BD42469B46D9
:1007900020239B1A5246DA40414613004A468A40BB
:1007A000170042461F43534693401E00AF42C3D931
:1007B00000220023009201934346002BD8D0FB0770
:1007C00072081A4346467B080EE0AB4201D1A242B2
:1007D0000CD8A41A9D41012024196D410021013E2D
:1007E00024184D41002E06D0AB42EED9013E24190B
:1007F0006D41002EF8D1009801995B4600196941BE
:10080000002B24DB2B005A464446D3402A00E2400A
:100810001C005B461500002B2ADB26009E4033009F
:1008200026004746BE403200801A9941009001914F
:100830009EE7A342BCD882E74246202300219B1AB0
:100840000022009101920122DA40019285E742469E
:1008500020239B1A2A0046469A402300F340444630
:1008600013432A00E2401C005B461500002BD4DA3B
:1008700042462F002023260097409B1ADE403B0073
:100880003343CDE7F0B54F464646D6464402C0B5A1
:1008900047000E1C640A3F0EC50F002F3CD0FF2FEF
:1008A00042D00023802299469A46E400D2041443A1
:1008B0007F3F73025B0A984673001B0EF60F002BF6
:1008C0001BD0FF2B13D042468021D200C904114314
:1008D000884600207F3B2900FF1A4B467140C9B271
:1008E0000F2B00D9B5E0744A9B00D3589F4643466E
:1008F000002B3FD1FF3F023303E04346002B2DD1B5
:10090000012329004A467140C9B21A430E2A38D839
:100910006A48920082589746002C13D104239946C6
:10092000033B00279A46C4E7002C05D108239946CB
:10093000063BFF279A46BCE70C239946093BFF2755
:100940009A46B6E7200002F09BFC7627431F9C40A6
:1009500000237F4299469A463F1AAAE7404602F092
:100960008FFC4246431F9A4076235B421B1A9046F7
:100970000020B0E703234A461A4391460320FC3384
:10098000A9E70D00FF200022C005ED071043284312
:10099000E0BCBA46B146A846F0BD0D0000200022DA
:1009A000F2E75346022BEDD0032B33D0A046012BA8
:1009B00005D100200022E7E7350003287AD03B006C
:1009C0007F33002B2DDD4246520707D00F224146D0
:1009D0000A40042A02D004229446E044424612010E
:1009E00005D54246364B1A403B0090468033FE2BDD
:1009F000C8DC42469201520AD8B2C5E780220025DF
:100A0000FF20D203C0E78022D203144202D0434623
:100A1000134249D08022D20322435202FF20520ABD
:100A2000B2E70122D31A1B2BC3DC4246DA4043460D
:100A30009E37BB40591E8B411A43530704D00F23E6
:100A40001340042B00D00432530129D50120002289
:100A50009AE7424663015501AB4215D21B200022A2
:100A6000013F01261C0052005B00002C01DB9D426F
:100A700001D85B1B324301380028F3D1581E834153
:100A8000134398460D009AE71A2001225B1BE8E702
:100A9000023B5A4253415B4235000022D8B273E711
:100AA00092010020520A6FE71A4352023500FF20DC
:100AB000520A69E74446ADE750FD020890FD02087E
:100AC000FFFFFFF770B542004E024C0045026D0A71
:100AD000120EC30F760A240EC90FFF2A10D0FF2C66
:100AE0000CD00120A2420AD1B54208D18B420FD0CE
:100AF000002A04D12800431E984100E0012070BD67
:100B00000120FF2CFBD13543F9D14B401800F6E70B
:100B10000020F4E730B5420044024D02C30F480004
:100B2000640A120E6D0A000EC90FFF2A19D0FF28A1
:100B30000BD0002A1ED100280BD1002D27D0002C6D
:100B400034D100292FD0080030BD002D28D1002A33
:100B500001D1002CF5D08B4207D1002B23D01800F7
:100B6000F2E7002C1CD1FF2814D0581E0223184095
:100B70000138E9E70028F8D08B42F6D18242F4DC54
:100B8000EBDBAC42F1D80020AC42DDD2E5E7002C33
:100B9000DAD0EAE7002D03D18B42E6D10020D3E77B
:100BA00002204042D0E701204042CDE78B42E8D00E
:100BB000DBE7C04630B5420044024D02C30F480097
:100BC000640A120E6D0A000EC90FFF2A1AD0FF2800
:100BD0000ED0002A1ED100280ED1002D2AD0002CC4
:100BE0000CD08B421DD0581E02231840013810E053
:100BF000002D0DD1002A20D1002C1ED1002923D098
:100C0000080006E0002C03D1FF28ECD1002D17D0FE
:100C1000022030BD0028E6D08B42E4D18242E2DCE3
:100C200004DBAC42DFD80020AC42F2D2002B0BD068
:100C30001800EEE7002CECD0D5E78B42D3D1F5E7D6
:100C400000208B42E5D0CEE701204042E1E7C046DC
:100C5000F0B54F464646D64643025B0A4500C0B54E
:100C600099460F1C2D0EC60F002D00D188E0FF2DD8
:100C700000D18DE08022DB00D2041A43002391468C
:100C800098469A467F3D7C027B00640A1B0EFF0F4C
:100C9000002B68D0FF2B21D08022E400D204144323
:100CA00042467F3B5B1900215D1C0A2A2EDC7E40F8
:100CB0004246022A23DC013A012A00D9BDE002297A
:100CC0006ED001292CD100200022C005F607104368
:100CD0003043E0BCBA46B146A846F0BD2B00FF3316
:100CE000002C65D00322414611433200013588466D
:100CF0007A40FF350A2900DDD8E01600032140467E
:100D000001228240A620C000024220D05346022B7E
:100D100046D0032B00D1BBE051464C460129D2D02E
:100D20002B007F33002B70DD620704D00F2222409E
:100D3000042A00D00434220103D5634B1C402B004D
:100D40008033FE2B2CDCA201520AD8B2BDE79020E2
:100D50008000024227D1B938FF3810426DD03E00E2
:100D6000A1468A46D2E7002C41D1012342461A43CC
:100D700090462B00424601215D1C0A2A97DDC5E7FB
:100D8000002B26D104239846033B00259A467AE798
:100D9000002B18D108239846063BFF259A4672E798
:100DA000FF20002291E780220026FF20D2038CE75B
:100DB00041460222013511438846FF350A29A5DC48
:100DC00002217E4074E70C239846093BFF259A4692
:100DD00059E7180002F054FA4A46431F76259A4014
:100DE00000236D42914698469A462D1A4BE7200003
:100DF00002F046FA4246431F9C402B1A763B0021E4
:100E00005D1C0A2A00DC52E780E70122D31A1B2B63
:100E100000DD58E79E352200AC40DA40631E9C415D
:100E20002243530704D00F231340042B00D0043275
:100E3000530137D50120002247E7210C4A462404FC
:100E4000240C2700100C1204120C4443574348434F
:100E500051433A0C09195218944203D9802149028E
:100E60008C4660443F0411043F0CC9198C01671E75
:100E7000BC41120C890E12180C439201144312014A
:100E80000ED5012362081C40144349E73E00A146E9
:100E900080224B46D2031A435202FF20520A14E723
:100EA0001D003DE792010020520A0EE70F29EDD107
:100EB00080224B46D2031342EAD01442E8D13E00CE
:100EC000FF20224301E7C046FFFFFFF7F8B5474682
:100ED000CE464E0243024500720AC40F480080B558
:100EE00094465F0A2D0E9B09000EC90FB609FF2814
:100EF00024D0012251402A1A8C420FD0002A00DC53
:100F00006AE1002835D1002E00D1A2E0511E012A4D
:100F100000D124E1FF2A21D00A002FE0002A00DCC2
:100F200067E100285ED0FF2D18D08021C9040E4350
:100F30001B2A00DC76E02A00013332E02A00FF3A67
:100F40009146002E42D08C4255D04A46002A00D10C
:100F50009CE0002D00D177E00C003300DB08002B73
:100F600000D16EE08022D20313435B02FF205B0AB4
:100F700024E0FF2DF2D08021C9040E4301211B2A59
:100F800008DC31002020D140821A96403200501EE9
:100F9000824111435B1A5A0160D407212A0019408B
:100FA00057D00F211940042900D00433590150D5DE
:100FB000501CFE2A45D09B01C0B25B0AC0051843F5
:100FC000E4072043C0BCB946B046F8BD01225140F9
:100FD0008C42BAD14A46002A10D0002D00D198E0A8
:100FE0000023BBE7002E34D0511E012A6ED0FF2A09
:100FF000B4D00A009CE7002A00D088E0FE206A1CDA
:10100000104200D092E0002D00D0A4E0002B00D1CF
:10101000CBE0002E00D0CAE00022DB085B025B0AB6
:10102000D0B2CBE731002020D140821A9640320066
:10103000501E82410A439B185A01AED56A1CFE2DF0
:101040004AD1FF200023B9E7FF22002B4BD10C002F
:101050003300DB08FF2A00D181E7DFE79F01BF09EA
:10106000380002F00DF905388740854221DC3B004D
:101070002021421B0132D3408A1A97407A1E9741A1
:1010800000223B43590700D08BE78FE7FE206A1C04
:10109000104212D1002D52D1002B7CD0002EBBD09B
:1010A0009A1B500100D48BE001240022F31A0C405B
:1010B000E8E7564B2A1A3B40E4E79F1B7A0146D4E7
:1010C000002FCDD100240020002377E79B190125B4
:1010D0000132590100D460E701214D4819405B08F5
:1010E00003400B43CEE7571E012A5AD00C00FF2ABB
:1010F00033D001221B2F07DC2021C91B1A008B4093
:10110000FA40591E8B411A430500B31A43E7002DDC
:1011100023D1FF22002B9BD0511E012AD6D0FF2ABB
:101120001BD01B292CDD0200731C3AE7FF2A88D054
:101130009B195B08590700D033E7DB086EE7002BEB
:1011400010D1002E43D0012433000C4006E70124C7
:10115000F71A0C4084E7002B04D13300FEE601258A
:101160009B1B18E7002E00D1F8E68022D20397429D
:1011700004D3944502D2012433000C40DB08F1E68D
:101180001A002025CA40691A8B40591E8B4113430F
:1011900005009B1950E7002E94D0012433000C4029
:1011A0003AE70C000125F31AF5E6330034E79B1902
:1011B00000225901C1D5154A1340DB0801222DE751
:1011C000002A00D17EE713000022DB0826E78023F7
:1011D0000024FF20DB03F1E6002A00D156E7471B7D
:1011E0003A00002D00D130E78022D2040C001343D6
:1011F0007FE7002A00D101E7411B002D01D10A0041
:1012000088E78022D20413438BE7C046FFFFFFFB31
:10121000FFFFFF7D41024200C30F490A0020120E6A
:101220007E2A03DD9D2A02DD094A98187047802036
:1012300000040143952A07DC9620821AD1404842D7
:10124000002BF3D10800F1E7963A9140F7E7C0464A
:10125000FFFFFF7F70B5002813D0C317C5185D408E
:10126000C40F280002F00CF89E2301001B1A962BD5
:101270000FDC082834D008398D406D026D0AD8B2D1
:1012800002E0002400200025C0052843E407204395
:1012900070BD992B16DC421F052800D095402A000E
:1012A000114802406E0709D00F263540042D05D0A5
:1012B0000432550102D59F2302405B1A9201550A60
:1012C000D8B2E1E70522121A2800D0400200080037
:1012D0001B3085402800451EA84102431500DEE76B
:1012E0006D0296206D0ACFE7FFFFFFFB70B5041E6D
:1012F0000ED001F0C5FF9E2301001B1A962B0CDCBB
:1013000008282FD008398C406402640AD8B201E062
:1013100000200024C005204370BD992B16DC421F1D
:10132000052800D09440220010480240650709D0EB
:101330000F252C40042C05D00432540102D59F23E4
:1013400002405B1A9201540AD8B2E3E7020020007F
:101350001B3290400200501E82410520401AC440BA
:101360001443E0E764029620640AD3E7FFFFFFFB23
:10137000F0B557464E464546DE46E0B583B0009090
:1013800001910C034F00CE0F610A009C1D03640FF6
:101390000C43009900920193C80059004B0D9946E7
:1013A000009A019B6D0AD90F530F2B439A46009B5D
:1013B0007F0DDA0094464A46B046BA1A8E4200D1F2
:1013C000B0E0002A00DC78E04946002900D1E9E0DD
:1013D000C9498F4200D195E10125382A16DC8021C8
:1013E000534609040B439A461F2A00DDE7E12021FA
:1013F00055468B1A61469D40D1400D436146994048
:101400004B1E99415346D3400D43E41A451BA84255
:1014100080414042241A230200D40FE16402640A8E
:10142000002C00D139E1200001F02AFF0300083B25
:1014300020212800CA1AD0409C4002009D4022432F
:101440009F4200DD73E1D81B0130091A2C008D404A
:10145000C4406B1E9D411300C2408B4025430027B2
:1014600014001D436B0709D00F232B40042B05D01C
:101470002B1DAB42AD416D4264191D00230200D407
:101480002DE19D4A0137974200D1D3E046469B4962
:10149000ED0821404A072A437C054D022D0B640DBF
:1014A00024052C43F60734431000210003B0F0BCA0
:1014B000BB46B246A946A046F0BD002A00D184E052
:1014C0004A46D21B002F00D06DE12500054300D114
:1014D00027E1561E012A00D13BE2874DAA4200D1E6
:1014E0006AE20125382E12DC32001F2A00DDF8E105
:1014F00020262500B61A07005346B040D440B54018
:10150000D740461EB0411B1B9A463D4305436246E9
:10151000551BAC459241534652420E004F468846F9
:101520009C1A78E7002A00DC8EE04946002975D134
:1015300061465346194300D1F6E0511E012A00D1FD
:1015400091E16D4DAA4200D1DCE00125382914DC7F
:101550000A001F2A00DDA2E120215346891A8B4090
:101560001D006346D3401D4363468B4019004B1E4C
:1015700099415346D3400D43E4182D1885428041CC
:1015800040422418230259D55B4B01379F4251D06A
:1015900001215A4B6A081C4029400A43E5071543BC
:1015A00064085FE761465346194300D1BCE0511E11
:1015B000012A00D164E1504DAA4200D16AE101251F
:1015C000382900DD22E70A000EE74D4A7D1C15424E
:1015D00000D0D0E025006246534605431A43002F51
:1015E00000D037E1002D00D1A8E1002A00D16AE146
:1015F0006346C51A5346E21AA8429B415B42D31A7E
:101600001A0200D403E263461D1AAC4592415346C8
:1016100052421C1B0E008846A41A23E736498F420B
:1016200070D00125382AA8DC8021534609040B43D9
:101630009A468EE73C000025002231E707232B4025
:10164000002B00D010E793E0002A74D04A46D21B4A
:10165000002F00D1C7E02849894500D185E1012547
:10166000382A12DC802109040C431F2A00DDABE17B
:1016700020212500891A070088408D40D740411E4F
:101680008841D4403D430543A244654465459241A9
:101690005242524414004F4674E7280001F0F0FD16
:1016A000030018331F2B00DCC2E62A0008388240F2
:1016B0009F4200DDA9E0DB1B581C1F2800DCACE1C9
:1016C00015001F3BDD40202805D040231B1A9A40FF
:1016D000531E9A411543072300272B40B0E7ED081E
:1016E000054B62072A43E4089F420FD02403250BD1
:1016F0007C05640DD4E6C046FF070000FFFF7FFFB6
:10170000FE070000C00862070243E40813002343F9
:1017100000D186E180252D0325432D03C34C2D0BDD
:10172000BEE6604654460E001700C508D8E7C04C18
:10173000FF1A144096E6BF4A791C11426BD1220071
:101740000243002F00D0DBE0002A00D12DE16246E9
:1017500053461A4300D1B6E06346C518854280411E
:10176000544440422418230202D50F00B04B1C40C1
:101770003A002800D8E76246851AA84292415346AB
:1017800052429146E31A1A004B46D21A1300914670
:101790001A0254D44A464C462A4300D040E600265A
:1017A000002400257CE6A14DA94500D190E001254B
:1017B000382A00DDABE680252D042C4395E6110088
:1017C00055462039CD40A946202A06D0402153460F
:1017D0008A1A934062461A43944665466B1E9D41A1
:1017E0004B461D4312E62100014300D1C4E0511EC7
:1017F000012A00D1FBE08D4DAA4200D1B5E00125C0
:10180000382900DD41E70A002FE7894CFF1A144010
:101810006207E4086AE7854A914200D1E3E0634643
:10182000C218824280412300404253441B18DD0706
:101830005C080723520815430F002B4000E763465E
:101840001D1AAC459241534652421C1B0E0088465D
:10185000A41AE5E5002D00D091E0002A38D18024BB
:101860000026240356E76346C51885428041544448
:10187000404224180127230200D4DFE6022787E62E
:101880006346C51AA842804153464042E41A0127E4
:10189000241AC0E56207C0080243E40836E71100D5
:1018A00053462039CB409946202A06D04021534642
:1018B0008A1A934062461A43944665466B1E9D41C0
:1018C0004B461D4359E66207C0080243E4080DE792
:1018D00053465A076346D80853460E000243DC08B5
:1018E00014E715002600203DEE40202A03D04025B5
:1018F000AA1A94402043421E90410500354306E653
:10190000002A7CD062465346C0081A4300D1FAE64A
:10191000620710438022E4081203144208D0D90859
:10192000114205D16346D80853460C005B071843A3
:10193000420FC000C00852070243E7E6002A00D168
:101940002DE76346D80853465A070E000243DC08C9
:10195000CCE663461D1AAC459241534652421C1BCD
:101960000E008846A41A013755E56346D908534648
:101970005A070A43DC08C9E660465446D4E6C00864
:10198000002A00D1BFE6620710438022E408120358
:101990001442CDD0DD081542CAD16346D80853465B
:1019A0005B070E002C001843C2E76346D908534674
:1019B0005A070A43DC0899E66346D80853465A0793
:1019C0000E000243DC08A1E6110027002039CF40B9
:1019D000202A03D040218A1A94402043421E90417D
:1019E00005003D4351E60C000025002258E5604407
:1019F00060459241544452420500A4183AE75346C8
:101A00005A076346D90853460A43DC087EE61A00A3
:101A10001C002A4300D0ABE6C1E620210025091AAC
:101A200019E500220025014C3AE5C046FF070000F9
:101A3000FFFF7FFFFE070000F0B5DE464546574634
:101A40004E46E0B587B0009201930B031B0B9B46FB
:101A5000CA0F4B00040080465B0D029200D16AE180
:101A6000D44A934200D18CE15946420FC9000A433F
:101A7000802109041143C2009046CF4A894692460C
:101A80009A44002300240393009E019F3B031B0BF9
:101A90009B467B0030005B0DFD0F002B00D128E141
:101AA000C44A934200D177E15946720FC9000A43F4
:101AB0008021090411438B46BF49F2008C465146F0
:101AC0006344CB1A9A460023029E6E400F2C27D8FF
:101AD000BA49A40009598F46CB464246029E039B51
:101AE000022B16D0032B00D1A6E2012B00D0DFE0A1
:101AF00000220023002490461B052343F6073343AE
:101B00004046190007B0F0BCBB46B246A946A04605
:101B1000F0BD002200249046A64BEDE72E00DFE743
:101B2000CB4500D2D4E100D1CFE101235B429C46FA
:101B3000444648460027E2445B46150E1B021D43FF
:101B4000190C2B04120200951D0C9146029103956D
:101B5000FEF786FB02006A430B04210C8046194302
:101B60008A4209D9009D0123AC465B4261449C46F0
:101B7000E0448D4200D8FBE1881A0299FEF770FB21
:101B8000039A240442430904240C03000C43A24298
:101B900006D90099013B8C466444A14200D8E1E19A
:101BA000A01A424612041A4393464B4659461B0C50
:101BB0001D0004930B0449460904090C0C001B0C7E
:101BC0005C43120C6B43884651436A43250CAC4678
:101BD0005B186344994203D9802149028C466244D0
:101BE000190C24041B04240C8A181C19904202D3DB
:101BF00016D1A74214D25B46009D013B4F4405938A
:101C00004F459B41AC465B426344C018854200D3BC
:101C1000A1E1824200D9F6E100D1F1E1059B9B46AA
:101C20003C1BA742BF41009D801A7F42C01B8542DA
:101C300000D1D0E10299FEF713FB039A0B04424353
:101C4000210C070019438A4200D978E1881A0299C9
:101C5000FEF706FB039A240442430904240C030004
:101C60000C43A24200D95DE14146A41A3A041A434A
:101C7000049D13041B0C594347466B439C46100CB0
:101C800047430B0CBC44634468439F4203D98025FF
:101C90006D02AC4660441F0C09041B04090C3F187C
:101CA0005B18BC4200D202E100D1FDE001231A43DF
:101CB000434B5344002B00DCAEE0510700D098E1C9
:101CC0005946C90106D559463E4B194080238B46DB
:101CD000DB0053443C498B4200DD1AE75946D208E9
:101CE000490711435A465B0554028846240B5B0D95
:101CF00002E75A46009B1A4300D17EE05B46002B68
:101D000000D100E1584601F0BBFA020003000B3A93
:101D10001D27009EBA1A19005846D6400839884037
:101D2000320002439346009A8A40284953448A4627
:101D30009A440023C8E65B460343994656D05B4667
:101D4000002B00D1CDE0584601F09AFA0B235B42FC
:101D50009C460200844466461D239B1B26001100FE
:101D60005846DE4008398840330003439946230033
:101D70008B409846164B00249B1A9A4600230393E7
:101D800082E65A46024391462AD100229A4602230D
:101D900090460824039377E65A46009B1A430D4B5E
:101DA0009C46E244002A17D102231C4300239B4691
:101DB000023389E6FF07000001FCFFFFCCFD0208AB
:101DC000FF030000FFFFFFFEFE070000F30300001B
:101DD0000DFCFFFF01F8FFFF032332001C4373E6F5
:101DE0009A460323D9460C2403934DE600239846D4
:101DF0009A4601330424039346E601231C4300233F
:101E00009B46013360E60023802498460026924BCF
:101E1000240371E6012252420121C91A382900DD4A
:101E200066E61F2900DCABE01F204042C31A58467B
:101E3000D8400300202904D058468849514488409E
:101E40000243511E8A411A430723190000241140FE
:101E500013420CD00F231340042B00D1F9E0111DC5
:101E600091429B410A005B4259075B021C0BD2085E
:101E70000A43904600233FE680244B462403234236
:101E800009D05B46234206D11C4324032E00904612
:101E9000714B240B30E680244B4624031C4324035F
:101EA000029E6D4B240B27E6002B00D100E7009823
:101EB000511E84466444844200D284E0BC4200D275
:101EC000AEE000D1C1E00A00F0E6424500D92CE6C0
:101ED0004B46DC07580843465B081C434346DF0774
:101EE0002AE601F0CDF915239C468444020063469E
:101EF00020321C2B00DC2EE7230008388340994653
:101F00000023984636E701F0BBF9020003001532C2
:101F100020331C2A00DCFBE60099083881400022AF
:101F20008B4602E70099013B8C466444A14200D9EC
:101F30009AE6A24200D897E6831E644494E6AC4633
:101F40006144013F8D4200D980E68A4200D87DE697
:101F5000871E61447AE6854200D05FE6B94500D924
:101F60005CE656E6A24200D81AE6831E644417E6F1
:101F70008A4200D800E6AC46831E98466144FBE5E1
:101F800037481400504482405B4617008340CC40E1
:101F90007A1E974123433B431A005B46CB405107CF
:101FA00009D00F211140042905D0111D9142924101
:101FB00052429B180A00190200D455E7002201235F
:101FC0000024904698E50A00BC4200D06EE64B45DE
:101FD00000D06BE66CE6234B234A5344924500DA6B
:101FE00018E7012149420A1D8A42894149428B442E
:101FF00066E60F211140042900D161E61100F2E7E5
:10200000BC4200D80AE602235B429C4600994F443A
:102010004F459B41E3448C465B426344C018FFE557
:102020004946009D480048458941AC4649426144C3
:102030008146023A6418C7E780245B4624031C43A8
:1020400024039046044B240B56E59945E8D30A0037
:10205000BDE7002308E7C046FF0700003E0400007C
:102060001E040000FF03000002FCFFFFF0B557460E
:10207000DE464E464546E0B50D000400E80F8346B7
:102080000903D80F090B824619488C461F036900C3
:102090005E00490D3F0B760D814218D086420FD06D
:1020A0000120B1420DD1BC450BD1944209D1D34599
:1020B0001CD0002905D160462043431E984100E012
:1020C0000120F0BCBB46B246A946A046F0BD0120A7
:1020D0008E42F6D1614639430F0017432743F0D1B2
:1020E0005B465246981A431E9841EAE70020E8E70B
:1020F000FF070000F0B557464E464546DE46E0B5C0
:102100000D000F03390B83B0040080460191580085
:10211000E90F314F400D8C466E00190382469146FF
:10212000760D090BD80FBE421FD0BA450FD0002E36
:102130002FD15546019E3443002D27D10A433AD072
:10214000002C45D100281AD10120404217E011434C
:102150003BD1002E02D1019F2743F3D0844509D102
:102160006346002BF0D0604609E0019F27432CD145
:10217000B24524D063460220013B1840013803B029
:10218000F0BCBB46B246A946A046F0BD002CD9D053
:10219000E4E75446002CEDD08445EBD15645E9DC0C
:1021A000DEDB019B8B42E5D8DAD1C845E2D80020BE
:1021B000C845E4D2D4E70020002CE0D0DAE7114390
:1021C00003D18445D6D10020D9E702204042D6E78A
:1021D0008445E6D0CEE7C046FF070000F0B557467D
:1021E0004E464546DE46E0B50D000F03040080462E
:1021F000E80F390B844683B05800304F400D0191F1
:102200001E03690082469146490D360BD80FB9422C
:1022100020D0BA450FD000292BD101990C4351464B
:10222000002937D1324338D0002C44D1002819D1AD
:102230000120404216E0164313D1002902D1019F2C
:102240002743F3D0844520D063460220013B184049
:10225000013807E0019F274303D18A45F4D1164393
:102260001FD0022003B0F0BCBB46B246A946A04630
:10227000F0BD5446002CE7D08445E5D15145E3DC60
:1022800003DB019BB342DFD80FD06346002BCFD0D6
:102290006046E7E7002CC9D0D4E70020002CE1D04D
:1022A000D2E78445D0D10020DCE7C845CCD8002057
:1022B000C845D7D2E9E78445E3D0C5E7FF0700006A
:1022C000F0B55746DE464E464546E0B51F000B03C7
:1022D0001B0B16009A46CA0F4B000400934687B0AA
:1022E0005B0D00D1D5E0BB4A934200D1F8E05146E6
:1022F000420FC9000A43802109041143C2009146DC
:10230000B54A8A469D180023984602933C037B00F9
:10231000FA0F3000240B5B0D009200D196E0AD4A1D
:10232000934231D0720FE4002243802424041443EA
:10233000A94AF000944663445B195A1C0192424634
:1023400000260A2A42DC5A4600994A4093464246F1
:10235000022A32DC013A012A00D949E1022E00D1D9
:10236000CAE0012E3DD100230024002210005A466D
:102370001B052343D2071343190007B0F0BCBB462B
:10238000B246A946A046F0BD924B2643EB18002E5C
:1023900000D1BBE00322414611435A4688460099CA
:1023A0004A40802109018C4629006144019141463F
:1023B0000A2900DD33E2934603264246012797406F
:1023C000A6213A00C9000A400F4231D0029E022ED7
:1023D00000D135E2032E00D1D2E154464846012E09
:1023E000C1D0019A7D4B94466344002B00DCC0E0D1
:1023F000420709D00F220240042A05D0021D824262
:102400008041404224181000E20106D5744B019A25
:102410001C4080239446DB006344724A93426BDC89
:102420006207C00864025B050243240B5B0D9DE755
:10243000902189000F4263D188223A4200D1D7E02F
:10244000009BA2469B4681460296BFE7230033438A
:1024500000D17FE0002C00D1ADE1200000F010FFA2
:10246000020003000B3A1D201900821A30000839BF
:10247000D0408C400443300088405B4AEB1A9446BD
:1024800063445A1C0192424600260A2A00DC5AE79D
:102490009CE753460343994654D05346002B00D142
:1024A00077E1504600F0ECFE0B235B429C460200B5
:1024B000844411005046083988401D2380466046F8
:1024C0001B1A2000D8400300404603439A462300CD
:1024D0008B4099460023444D9846AD1A029315E768
:1024E00052460243914626D100221D000223924605
:1024F00008329046029309E700240022354B35E765
:10250000002380249B462403324B2FE702224146BE
:1025100011438022120194462A00624488460192A7
:102520000A2900DD52E75A460020009904004A407B
:10253000934602260BE70C221D000323814690469A
:102540000293E3E600239A4604339846033B0025B2
:102550000293DBE6424601331A432B0090465A1C95
:10256000019242460024002001260A2A00DCEAE605
:102570002CE70122D21A382A00DDF4E61F2A00DCFB
:102580002AE11F214942CB1A2100D9400B00202A01
:1025900005D0164A019D94466544AC402043421E36
:1025A00090411843072319000024014003420CD036
:1025B0000F230340042B00D140E1031D8342A441BB
:1025C0001800644261076402240BC20800230A4316
:1025D000CCE6C046FF07000001FCFFFFFF03000040
:1025E000FFFFFFFEFE0700000DFCFFFF3E040000A2
:1025F00049464A460904090C0D00160C020C000459
:10260000000C4543AC4605007543A84615000F0075
:102610007543009202952A00009D6F4365462D0C7C
:10262000A94647444F44B84505D9150080225202B7
:102630009046454402953D0C039565462D043F04A4
:102640002D0CAC463D0065440495250C2404240C57
:10265000AC4625007543A84665460F0069434144D2
:1026600089466743390C49446E43884503D9802223
:102670005202904646440D0CA84635004544059547
:10268000039D3F04A8463F0C0904C91988444546E8
:10269000039555462E04360C2F0C350045437843E0
:1026A00081463800A8462D0CAA46009A5043724332
:1026B0004A445244914503D980256D02A9464844B5
:1026C000150CA94645462D042D0CA84665467D43AC
:1026D000120448449044A9463200654662436E4362
:1026E0007C43170C3619BF19BC4203D980246402FD
:1026F000A446E144029C039EA446059D66448E4286
:102700008941AC4612043C04120CA21862444942AE
:1027100054184644A4464645A44182466442A04615
:10272000AA4292418C458941E244D04449425242F6
:102730000A43A045A44182458941644249420C4371
:1027400041463F0CD2191219CC0D0499700208436E
:10275000411E884141464A44F60D52023043490227
:1027600014430843D20135D50122430802401343E4
:10277000E0071843640834E6009BA2469B46814666
:102780008024534624031C4324034A462E4B240B27
:10279000ECE500F075FD15239C4684440200634679
:1027A00020321C2B00DC84E60023994623000838E5
:1027B00083409A468EE600F063FD02000300153266
:1027C00020331C2A00DC4EE602003400083A0020C8
:1027D000944052E6019304E61C4B21009C46030002
:1027E000019DD3406544A94019430300AB40581EE6
:1027F000834119430800D4404B0709D00F230B40F5
:10280000042B05D00B1D8B42804140422418180038
:10281000230200D4D6E6012300240022A6E50F29D6
:10282000AAD1802352461B031A42A9D01C42A7D129
:102830001C43009B02009B46034B97E50024C1E626
:102840000024014B220091E5FF0700001E04000058
:10285000F0B54E464546DE465746E0B585B0009099
:1028600001910C034F00CE0F610A009CB046640F2B
:102870000C4300997F0DC80011001A001B039C46F1
:102880000091019251004B0D9946019B009DD90F7B
:1028900063466A0F5B0A1343EA0094469346C14AB3
:1028A00003900293914500D1CDE0012569404D464A
:1028B0007D1BAA468E4200D180E0002D00DC35E36E
:1028C0004946002900D1DFE0974200D194E1524609
:1028D0000125382A19DC8022029B1204134302933B
:1028E00052461F2A00DDE3E1534620226146029D45
:1028F000D21A9540D9400D43614691400A00511EBD
:102900008A411543029ADA40A41A451BA842804125
:102910004042241A230200D43DE16402640A002CE0
:1029200000D147E1200000F0ABFC0300083B202170
:102930002800CA1AD0409C4002009D4022439F427A
:1029400000DD77E1D81B0130091A2C008D40C4400E
:102950006B1E9D411300C2408B402543002714008D
:102960001D436B0709D00F232B40042B05D02B1DD3
:10297000AB42AD416D4264191D00230200D440E119
:10298000884A0137974200D101E101264346864932
:10299000ED0821404A072A437C054D022D0B640DAA
:1029A0001E4024052C43F60734431000210005B0D7
:1029B000F0BCBB46B246A946A046F0BD002D00DCE7
:1029C000D0E24946002900D0D4E06146029B194379
:1029D00000D12BE1691E012D00D1D9E1954200D132
:1029E0000AE10125382917DC8A4653461F2B00DDF2
:1029F000E7E12022D21A029B614693401D00534614
:102A0000D940634693401A000D43511E8A415346F4
:102A10001543029ADA40A4182D188542804140429D
:102A20002418230200D4B6E05E4B01379F4200D148
:102A3000ADE001215C4B6A081C4029400A43E507D0
:102A4000154364088DE7594A029B92466246BA4490
:102A50001A432CD08E422ED05246002A60D0002F2E
:102A600000D1DBE063460E00029CD80862070243F7
:102A7000E4081300234300D154E280252D032543AD
:102A80002D03484C2D0B8CE76146029B194300D166
:102A9000CCE029000139012D00D188E1954200D117
:102AA000AAE00125382900DD2FE78A4618E7012230
:102AB00051408E42D0D15346002B00D1BEE0002FB2
:102AC00000D038E1CA462200024300D1E2E1534679
:102AD000591E012B00D10DE2324A924500D1D2E1BC
:102AE0000127382913DC1F2900DDEEE12022029B9B
:102AF000521A250007009A46CC4090409540CF409E
:102B0000A244421E904153462F43074302933D0087
:102B1000654465459241029B52424F46D41880E776
:102B2000234A7D1C154200D0AAE062462500029B84
:102B300005431A43002F00D0F5E0002D00D16BE1D2
:102B4000002A00D152E16346C51A029BE21AA8424C
:102B50009B415B42D31A1A0200D4D5E163461D1A89
:102B6000AC4592410126029B52421C1B8846A41A86
:102B70000E40F6E697423FD052460125382A00DD46
:102B80004AE78022029B1204134302932DE73C0084
:102B90000025002205E707232B40002B00D0E2E6AA
:102BA0006BE0C046FF070000FFFF7FFF01F8FFFF5B
:102BB000FE070000280000F063FB030018331F2B02
:102BC00000DCB4E62A00083882409F4200DDB9E00C
:102BD000DB1B581C1F2800DCA0E115001F3BDD405B
:102BE000202805D040231B1A9A40531E9A411543B2
:102BF000072300272B40D0E7C00862070243E40800
:102C000037E7EA0863071A43D34BE4089F4200D131
:102C10002FE72403250B7C05640DC2E6CA4622007B
:102C2000024358D163460E00029C0393039B574610
:102C3000DA08E7E7C94CFF1A144092E6C84D7A1C3F
:102C40002A4200D084E022000243002F00D0EFE0AF
:102C5000002A00D1E5E0624602990A4300D1C5E0AE
:102C60006346C5188C46854280416444404224181E
:102C7000230202D5B94B01371C40BA460395D5E76C
:102C80006246851AA842924152429146029BE31A3B
:102C90001A004B46D21A130091461A026CD44A46C7
:102CA0004C462A4300D03AE600260024002578E668
:102CB000029953460D00203AD540202B06D04022E1
:102CC000D21A0B00934062461A4393465B465A1E43
:102CD00093411D4319E653465A1E012B00D1C6E00D
:102CE0009D4EB24500D1BDE688460E000125382A2A
:102CF00010DC1F2A7FDC20212500891A070088406C
:102D00008D40D740D440411E8841029B3D431B1B50
:102D1000054302936246551BAC459241029B5242C9
:102D20004F469C1AF6E5002D00D0B7E0002A00D1EE
:102D3000F0E001260E4063460298D90842070A4394
:102D4000C40896E6854CFF1A14406207E40860E761
:102D500081498A4200D1C9E06346C118814280415D
:102D6000029B4042E3181B18DD075C080723490853
:102D70000D4317002B4010E763461D1AAC459241E6
:102D80000126029B52421C1B8846A41A0E40C6E52F
:102D90006346C518029B854280419C46404264447C
:102DA00024180127230200D4F5E6022741E66346F2
:102DB000C51AA8428041029B4042E41A0127241A06
:102DC000A8E5029D52462B00203AD34019005346F5
:102DD000202B06D04022D21A2B00934062461A4381
:102DE00093465D466B1E9D410D4315E66207C00884
:102DF0000243E4080DE7110027002039CF40202AC4
:102E000005D040218A1A9440250005430395039D6F
:102E10006A1E95413D437DE7002A00D144E7012623
:102E20000E406346D908029B5A070A43DC08F0E6C5
:102E3000002A28D06246029FC0083A4300D1DCE64F
:102E4000620710438022E4081203144209D0FD08EF
:102E5000154206D1634601262C00D8087B0718438B
:102E60000E40420FC000C0085207024301E663460D
:102E70001D1AAC459241029B52421C1B0E00884613
:102E80000127A41A46E56346D908029B5A070A435C
:102E9000DC08EEE56346029C0393C7E6C008002AFF
:102EA00000D1AAE6620710438022E408120314420C
:102EB000D7D0029FFD081542D3D163460126D8081A
:102EC0007B072C0018430E40CBE70A002700203A6E
:102ED000D740202905D04022521A944025000543AE
:102EE0000395039D6A1E95412F4310E614000025AB
:102EF000002256E5029B60449946604592414C444D
:102F000052420500A4184CE71A001C002A4300D0C6
:102F1000B3E6C9E6802400262403AEE5202100257F
:102F2000091A17E5002200250B4C3AE5002D00D1C7
:102F3000F6E54B46DA1B9246002F00D16FE6382AA1
:102F400005DC80263604344388460E00D1E68846E8
:102F50000E000125DEE6C046FF070000FFFF7FFFF1
:102F6000FE070000002D00D168E64B46D91B002F5C
:102F700001D18A46A7E50127382900DDC7E580226F
:102F800012041443AFE5C046F0B5C6461E03360B27
:102F9000B0460D4E0C034D005F0000B5240B6D0DC7
:102FA0007F0DB5420BD0084900208F4204D1464620
:102FB00016433000431E984180BCB846F0BD044320
:102FC0000120002CF8D1EEE7FF0700000B00020003
:102FD00070B5164D0C0382B0490000200092019399
:102FE000240B490DDE0FA94204DD1148814203DDA7
:102FF000104BF01802B070BD8020400320430E4CEF
:10300000641A1F2C08DD0D4B5B1AD8400300584290
:10301000002EEFD11800EDE7094B009A9C46030003
:1030200061448B40E2401343F1E7C046FE030000D9
:103030001D040000FFFFFF7F3304000013040000A5
:10304000EDFBFFFF70B5002816D0C317C5185D4013
:10305000C40F280000F014F9104B1B1A5B055B0D20
:103060000A2814DC02002E00153296400B22121A98
:10307000D5402D032D0B03E000240023002500265E
:103080001B052B43E40723433000190070BD0B38A8
:1030900085402D0300262D0BF2E7C0461E040000DC
:1030A00010B5041E10D000F0EBF80E4B1B1A5B0598
:1030B0005B0D0A280FDC0B222100121AD1401530BB
:1030C0000A038440120B01E0002300221B05134376
:1030D0002000190010BD22000B388240120300248A
:1030E000120BF3E71E04000070B542024300C40F48
:1030F000FE201B0E591C550A08420CD0E021890005
:103100008C466D07120B63441B051343E4072343EE
:103110002800190070BD002B14D1002D1BD02800F1
:1031200000F0AEF80A281CDC0B232A001B1ADA4038
:10313000030015339D400E4B12031B1A5B05120B47
:103140005B0DE1E7002D09D0130B802212031A4317
:103150006D07084BD8E700230022D5E70022054B76
:10316000D2E703002A000B3B9A400025E3E7C04664
:1031700089030000FF070000F0B54B000F035B0D53
:103180003B4C450F83B07F0A5E1C2F43009001919A
:10319000CA0FC50026420BD036495C18FE2C13DD41
:1031A000FF200023C0051843D207104303B0F0BD31
:1031B000002B02D100200023F4E73D43F0D0802310
:1031C000DB03FF203B43EDE7002C14DD009BFF00F9
:1031D0009B01581E8341690F3B430B43590741D064
:1031E0000F211940042928D00433590125D5013471
:1031F0000023E0B2D6E721001731DBDB80211E205F
:1032000009043943001B1F281BDD02267642341BAC
:103210000E00E6403400202804D01748844663445A
:1032200099400D432B00591E8B412343590715D05C
:103230000F2100241940042917D19B015B0AE0B239
:10324000B0E70E4C1C192B00A540C340A140681EDE
:10325000854129430B4300245907C1D19B0100201C
:103260005B0A9FE7DB08E0B29CE70433E5E7C04672
:10327000FE07000080FCFFFFA2FCFFFF82FCFFFFB7
:103280001C2101231B04984201D3000C10391B0A96
:10329000984201D3000A08391B09984201D300095A
:1032A000043902A2105C40187047C04604030202B1
:1032B00001010101000000000000000010B500291C
:1032C00003D1FFF7DDFF203002E00800FFF7D8FF51
:1032D00010BDC04680B500AFBFF34F8FC046044B52
:1032E000044ADA60BFF34F8FC046C046FDE7C046D0
:1032F00000ED00E00400FA0580B582B000AF0200E6
:10330000FB1D1A70FB1D1B78112B1FD0FB1D1B789A
:10331000052B1BD0FB1D1B78192B17D0FB1D1B7811
:103320000F2B13D0FB1D1B781B2B0FD0FB1D1B7805
:10333000182B0BD0FB1D1B780E2B07D0FB1D1B7809
:10334000132B03D0FB1D1B78062B01D1462300E075
:1033500047231800BD4602B080BD000080B582B092
:1033600000AF0200FB1D1A70FB1D1B785A1E054999
:103370001300DB009B1A5B005B5ADBB21800BD46F2
:1033800002B080BD00000020F0B587B000AFB9608A
:1033900011007B600F257B19021C1A700C26BB19CB
:1033A0000A1C1A801523FC1828220823D318DB19BD
:1033B0001B781800FFF7D2FF0300237017243B1976
:1033C00001221A707B191B78180016F08FFD031E5E
:1033D0004CD07B191A782A4B9200D3587A68110086
:1033E000180016F047FF031E40D11523FB181B7869
:1033F0001800FFF781FF0300472B0ED17B191B78C4
:10340000180016F073FD3C19BB191A88BB68190027
:103410001FF0F4FC0300237028E01623FB180022A1
:103420001A701AE00F23FB181B78180016F05EFDC7
:103430001723FC18BB68012219001FF0DFFC0300F2
:103440002370BB680133BB6002201AF0C1F916215A
:103450007B181A787B1801321A701623FB181B7818
:103460009BB20C22BA1812889A42DBD80A201AF0B2
:10347000AFF91723FB181B781800BD4607B0F0BD45
:10348000241D002080B500AF00F010F800F042F8D5
:1034900000F0ACF800F03AF900F046FA00F074FBE6
:1034A00000F0E8FCC046BD4680BD000080B582B09B
:1034B00000AFFB1D00221A70BB1D01221A7019E01B
:1034C000BB1D1B789BB2013398B2BB1D1B78013B1F
:1034D0005A000E4BD318190012F00AFDBB1D1B78C1
:1034E000192B02D9FB1D0A221A70BB1D1A78BB1DAD
:1034F00001321A70064B1B78BA1D12789A42DFD936
:10350000FB1D1B781800BD4602B080BD5030002066
:10351000B000002090B583B000AFFB1C00221A70F1
:10352000BB1D00221A803B0000221A807B1D002256
:103530001A704BE03B1D01221A7033E0BB1D1B8843
:103540001C339BB23A001100180012F0D1FC3B0072
:1035500018887B1D1A783B1D1978C4B221481300C6
:103560009B009B185B00C318221C5A543B001B880D
:103570001B0A98B27B1D1A783B1D1B78591EC4B2DA
:10358000184813009B009B185B00C318221C5A5458
:10359000BB1D1A88BB1D01321A803B1D3A1D1278D3
:1035A00002321A703B1D1B78092BC7D97B1D1A7874
:1035B0000C4913009B009B185B00CB1809330022B9
:1035C0001A707B1D1A787B1D01321A70064B1B780E
:1035D0007A1D12789A42ADD9FB1C1B781800BD46A3
:1035E00003B090BDF8110020B000002090B583B06A
:1035F00000AFFB1C00221A70BB1D00221A803B008A
:1036000000221A807B1D00221A707B1D00221A7076
:1036100015E0BB1D1B88CB3398B27B1D1B785A006D
:10362000374BD318190012F063FCBB1D1A88BB1D61
:1036300001321A807B1D1A787B1D01321A70314BC2
:103640001B787A1D12789A42E3D37B1D00221A70F0
:103650004BE03B1D01221A7033E0BB1D1B889933E0
:103660009BB23A001100180012F042FC3B0018888F
:103670007B1D1A783B1D1978C4B2234813009B00A8
:103680009B185B00C318221C5A543B001B881B0A62
:1036900098B27B1D1A783B1D1B78591EC4B21A487C
:1036A00013009B009B185B00C318221C5A54BB1DBF
:1036B0001A88BB1D01321A803B1D3A1D1278023256
:1036C0001A703B1D1B78092BC7D97B1D1A780E4930
:1036D00013009B009B185B00CB18093300221A7063
:1036E0007B1D1A787B1D01321A707B1D1B78092BFC
:1036F000AFD9FB1C1B781800BD4603B090BDC04677
:1037000024120020B00000208C110020F0B589B0F8
:1037100002AF0B23FB1800221A703B1D00221A80F7
:10372000BB1C00221A8008217B1800221A80BB1DB6
:1037300000221A801726BB1900221A7000233B6151
:103740000023FB600D007C183B1D1900E42012F0E3
:10375000CFFB030023807B191B88002B03D13B1D6B
:103760001A88BB191A7008257C193B1D1900E52021
:1037700012F0BEFB03002380BC1DBB1C1900E62019
:1037800012F0B6FB030023807B191B88002B0AD1A3
:10379000BB1D1B88002B06D13B1D1B881B04BA1CBC
:1037A00012889B183B6108257C193B1D1900E720F6
:1037B00012F09EFB03002380BC1DBB1C1900E820F7
:1037C00012F096FB030023807B191B88002B0AD183
:1037D000BB1D1B88002B06D13B1D1B881B04BA1C7C
:1037E00012889B18FB6008257C193B1D1900E920F5
:1037F00012F07EFB030023807B191B88002B0BD16A
:103800003B1D1B881B0A9BB2DAB2414B1A703B1D51
:103810001B88DAB23F4B1A7008257C193B1D190032
:10382000EA2012F065FB030023807B191B88002B24
:103830000BD13B1D1B881B0A9BB2DAB2364B1A70A8
:103840003B1D1B88DAB2354B1A7008257C193B1DCD
:103850001900EB2012F04CFB030023807B191B881E
:10386000002B0BD13B1D1B881B0A9BB2DAB22C4BE1
:103870001A703B1D1B88DAB22A4B1A70244B1B7836
:10388000002B11D0234B1B78002B0DD0204B1D7823
:10389000204B1B78FC6839691722BA1810780093FE
:1038A0002B00220007F0C6FC1B4B1B78002B11D00D
:1038B0001A4B1B78002B0DD0174B1D78174B1B781C
:1038C000FC6839691722BA18107800932B0022007F
:1038D00007F0B0FC124B1B78002B11D0114B1B785A
:1038E000002B0DD00E4B1D780E4B1B78FC683969F0
:1038F0001722BA18107800932B00220007F09AFCC8
:103900000B23FB181B781800BD4607B0F0BDC0465E
:1039100041140020421400204314002044140020CD
:103920004514002046140020F0B585B000AF0F23E9
:10393000FB1800221A700C26BC1908257A198A2354
:103940005B001100180012F0D3FA03002380BB19AA
:103950001B88002B0CD17B191B88DAB2854B1A709F
:103960007B191B881B0A9BB2DAB2824B5A7007E0A4
:10397000814B1A787F4B1A707F4B5A787D4B5A7067
:103980000C26BC1908257A198E235B00110018003B
:1039900012F0AEFA03002380BB191B88002B0ED156
:1039A0007B191B881BB29BB2DB0BDAB2714B1A710D
:1039B0007B191B885B089AB26E4BDA8007E06E4B6E
:1039C0001A796C4B1A716C4BDA886A4BDA800C25C9
:1039D0007C190826BA191623FF331100180012F0BB
:1039E00087FA030023807B191B88002B04D1BB19A5
:1039F0001A88624B1A8003E0614B1A885F4B1A8069
:103A00000C257C190826BA198B235B0011001800BD
:103A100012F06EFA030023807B191B88002B04D15F
:103A2000BB191A88554B5A8003E0554B5A88534BA3
:103A30005A800C26BC1908257A191823FF33110067
:103A4000180012F055FA03002380BB191B88002BC5
:103A50000CD17B191B88DAB2484B1A717B191B8871
:103A60001B0A9BB2DAB2454B5A7107E0444B1A79F4
:103A7000424B1A71424B5A79404B5A710C257C19B2
:103A80000826BA198C235B001100180012F030FAD6
:103A9000030023800A23FC18BA1D1A23FF331100E8
:103AA000180012F025FA030023807B191B88002BD5
:103AB0000ED10A23FB181B88002B09D1BB191B88C8
:103AC0001A00BB1D1B881B041A432C4B9A600CE088
:103AD0002C4B1B78002B04D0284BE12252029A6019
:103AE00003E0274B9A68254B9A600C26BC190825E1
:103AF0007A198D235B001100180012F0F9F9030008
:103B00002380BB191B88002B0CD17B191B88DAB2D0
:103B10001A4B1A737B191B881B0A9BB2DAB2174B1C
:103B20005A7305E0154B18225A73144B00221A736E
:103B30000C257C190826BA191C23FF331100180024
:103B400012F0D6F9030023807B191B88002B05D1C6
:103B5000BB191B88DAB2094B9A7603E0084B9A7EB0
:103B6000064B9A760F23FB181B781800BD4605B04C
:103B7000F0BDC046FC1000204800002004110020C9
:103B80002C00002040140020F0B5D6464F46464693
:103B9000C0B588B006AFBB1D00221A703B000022E2
:103BA0001A803B1D00221A80FB1C00221A70FB1D8C
:103BB00000221A704CE1FB1D1B783B339BB29B002B
:103BC0009BB23C1D3A001100180012F091F903005D
:103BD00023803B1D1B88002B00D034E13B001B8859
:103BE0001B0A9AB2FB1C1A70FB1C1B781B09DBB268
:103BF0001A00FB1D1B7801339A4200D023E1FB1C05
:103C00001B780F22134000D11DE1FB1D1B785A1CAD
:103C1000FB1C1B780F210B40D8B295491300DB0029
:103C20009B18CB180133021C1A703B001988FB1D2E
:103C30001B785A1CC8B28E491300DB009B18CB18A6
:103C40000833021C1A70FB1D1B783B339BB29B0090
:103C50009BB201339BB23A001100180012F048F9F0
:103C60003B001B881B0A99B2FB1D1B785A1CC8B26B
:103C70007F491300DB009B18CB180233021C1A701B
:103C80003B001988FB1D1B785A1CC8B278491300E9
:103C9000DB009B18CB180533021C1A70FB1D1B7828
:103CA0003B339BB29B009BB202339BB23A001100A4
:103CB000180012F01DF93B001B881B0A99B2FB1D6E
:103CC0001B785A1CC8B26A491300DB009B18CB183A
:103CD0000333021C1A703B001988FB1D1B785A1C09
:103CE000C8B263491300DB009B18CB180633021CD3
:103CF0001A70FB1D1B783B339BB29B009BB20333B6
:103D00009BB23A001100180012F0F2F83B001B8839
:103D10001B0A99B2FB1D1B785A1CC8B254491300E8
:103D2000DB009B18CB180433021C1A703B00198867
:103D3000FB1D1B785A1CC8B24D491300DB009B18B1
:103D4000CB180733021C1A70FB1D1B785A1C4849FC
:103D50001300DB009B18CB1801331A78FB1D1B786E
:103D60000133DBB21900100013F0A2FAFB1D1B781F
:103D70000133DBB29C46FB1D1B785A1C3C491300E7
:103D8000DB009B18CB1808331B7801221340DBB2F1
:103D90009846FB1D1B785A1C35491300DB009B1805
:103DA000CB1808331B785B10DBB201221340DBB267
:103DB0009946FB1D1B785A1C2D491300DB009B18EC
:103DC000CB1802331B789A46FB1D1B785A1C2849D6
:103DD0001300DB009B18CB1803331978FB1D1B78ED
:103DE0005A1C23481300DB009B18C31804331878AF
:103DF000FB1D1B785A1C1E4C1300DB009B18E3189C
:103E000005331C78FB1D1B785A1C194D1300DB0071
:103E10009B18EB1806331D78FB1D1B785A1C144E9B
:103E20001300DB009B18F31807331B780022059260
:103E30000493039502940190009153464A464146EB
:103E4000604613F069FCFB1D1A78FB1D01321A70E5
:103E5000FB1D1B78052B00D8ADE6BB1D1B78180099
:103E6000BD4602B0E0BCBA46B146A846F0BDC04669
:103E7000742D002090B585B000AF0F23FB180022F1
:103E80001A706F4BBB60322021F006FE03003B60CE
:103E90003B68002B01D1FB23CEE0BB681B78FE2BD7
:103EA00001D0FF23C8E0FB1D00221A70B8E00F23E9
:103EB000FB1800221A7010E0BB685A1CBA60190087
:103EC0000F203B181B783A68D3180A78D2B21A70C0
:103ED0003B181A783B1801321A700F243B191B78D3
:103EE000132BE9D9FB1D1A7813009B009B189B002C
:103EF000544A98183B6801331422190023F0E7FA5A
:103F00003B6814220021180023F0B9F93B19002264
:103F10001A70BB681433BB600FE0BA680F203B18FF
:103F20001B783968CB1812781A70BB680133BB60F4
:103F30003B183A18127801321A70BB681B78FE2BB6
:103F400008D0BB681B78FF2B04D00F23FB181B780D
:103F5000312BE2D90F217B181B78013B3A68D3182B
:103F60001B78002B04D07B187A18127801321A7053
:103F70000F23FB181A78FB1D1C78100021F08CFD14
:103F8000030019002F4A23009B001B199B00D31824
:103F90000C331960FB1D1A782A4913009B009B18EB
:103FA0009B00CB180C331B68002B12D1FB1D1A7819
:103FB00013009B009B189B00224A9B18142200218F
:103FC000180023F05CF93B68180021F06FFD0E2308
:103FD00032E0FB1D1A781B4913009B009B189B00C5
:103FE000CB180C3318680F243B191A783B6819005A
:103FF00023F06DFA144B1B780133DAB2124B1A70AE
:104000003B191A783B680021180023F038F9BB6887
:104010001B78FE2B0AD1FB1D1A78FB1D01321A708A
:10402000FB1D1B78042B00D841E700E0C0463B682D
:10403000180021F03BFD00231800BD4605B090BDDF
:1040400000100408A01400200415002080B582B0E0
:1040500000AFFB1D00221A70BB1D01221A7021E067
:10406000BB1D1B785A1E154B5200D35A002B0DD086
:10407000BB1D1B789BB2013398B2BB1D1B785A1E27
:104080000E4B5200D35A190011F092FFBB1D1B7842
:10409000192B02D9FB1D0A221A70BB1D1A78BB1DF1
:1040A00001321A70064B1B78BA1D12789A42D7D982
:1040B000FB1D1B781800BD4602B080BD50300020AB
:1040C000B000002090B583B000AFFB1C00221A7036
:1040D000BB1D00221A803B0000221A807B1D00229B
:1040E0001A7047E07B1D1A78284913009B009B1823
:1040F0005B005B5C002B38D03B1D01221A7030E066
:104100007B1D1A783B1D1B78591E204813009B000D
:104110009B185B00C3185B5C1B0299B27B1D1A786D
:104120003B1D1878194C13009B009B185B00E3188B
:104130001B5C1A003B008A181A80BB1D1B881C33AD
:104140009AB23B001B881900100011F031FFBB1D13
:104150001A88BB1D01321A803B1D3A1D12780232AB
:104160001A703B1D1B78092BCAD97B1D1A787B1D41
:1041700001321A70064B1B787A1D12789A42B1D917
:10418000FB1C1B781800BD4603B090BDF811002041
:10419000B0000020F0B587B000AFB9607A601900B8
:1041A0000F243B19021C1A700E257B190A1C1A7069
:1041B0001726BB1900221A703B191B789BB21900F5
:1041C000E42011F0F5FEBB681B0A9BB21900E52044
:1041D00011F0EEFEBB689BB21900E62011F0E8FE7C
:1041E0007B681B0A9BB21900E72011F0E1FE7B6897
:1041F0009BB21900E82011F0DBFE7B191B789BB203
:104200001B029AB2202310241B19DB191B789BB2C6
:10421000D3189BB21900E92011F0CAFE24231B1900
:10422000DB191B789BB21B029AB228231B19DB19DE
:104230001B789BB2D3189BB21900EA2011F0B8FE8C
:104240002C231B19DB191B789BB21B029AB230235B
:104250001B19DB191B789BB2D3189BB21900EB20FA
:1042600011F0A6FEBB191B781800BD4607B0F0BDC3
:1042700080B582B000AFFB1D00221A70384B5B780E
:104280005B011AB2364B1B781BB213431BB29AB2B6
:104290008A235B001100180011F08AFE304B1B7955
:1042A000DB031AB22E4BDB881BB213431BB29AB24C
:1042B0008E235B001100180011F07AFE294B1A883A
:1042C0001623FF331100180011F072FE254B5A8897
:1042D0008B235B001100180011F06AFE214B5B7903
:1042E0001B021AB21F4B1B7B1BB213431BB29AB2A9
:1042F0001823FF331100180011F05AFE194B9B6868
:104300009AB28C235B001100180011F051FE154B7E
:104310009B681B0C9AB21A23FF331100180011F08E
:1043200047FE104B5B7B1B021AB20E4B1B791BB274
:1043300013431BB29AB28D235B001100180011F0D9
:1043400037FE084B9B7E1A001C23FF331100180018
:1043500011F02EFEFB1D1B781800BD4602B080BD7B
:10436000FC1000200411002080B582B000AFFB1DBE
:1043700000221A701B4B06220021180022F07FFF3A
:10438000BB1D01221A7021E0BB1D1B785A1E154B64
:104390005200D35A002B0DD0BB1D1B789BB20133AA
:1043A00098B2BB1D1B785A1E0E4B5200D35A1900EF
:1043B00011F0FEFDBB1D1B78192B02D9FB1D0A2233
:1043C0001A70BB1D1A78BB1D01321A70064B1B7880
:1043D000BA1D12789A42D7D9FB1D1B781800BD462A
:1043E00002B080BD50300020B000002080B500AF8A
:1043F000074B1B68074A934206D011F00BFE031EC1
:1044000002D1034B034A1A60C046BD4680BDC04678
:10441000F07F0020ADDEEFBEB0B58EB002AF14234A
:10442000F8180A257A191823F9180823FB1800939D
:104430000300012012F0D4F90C23F818BA1D102340
:10444000F9183B1D00930300022012F0C9F91C214A
:104450007B1801225A607B1800229A607B191B8806
:104460001A007B181A60BB691A000C007B1819002F
:1044700010001BF079F921007B1800225A607B188C
:1044800002229A603B1D1B881A007B181A60FB6889
:104490001A007B18190010001BF066F9BB691800A0
:1044A0007B191B88002219001BF0BFFB052015F0AB
:1044B00055F8FB681A003B1D1B88190010001BF003
:1044C00097FB031E17D1BB6918007B191B880122BB
:1044D00019001BF0AAFB052015F040F8FB681A0034
:1044E0003B1D1B88190010001BF082FB0300012BF1
:1044F00001D1012300E000231800BD460CB0B0BD7F
:1045000090B585B000AF78600F23FB1800221A70B9
:104510001CE00F243B191A78114913005B009B180B
:104520009B00CB1808331A687B6811001800FBF752
:10453000EBFD031E04D13B191B780133DBB20BE00A
:104540000F217B181A787B1801321A700F23FB1881
:104550001B78002BDDD000231800BD4605B090BDB0
:10456000A402002080B584B000AF78600F23FB1850
:1045700000221A7041E0264A7B6811001800FBF700
:10458000C3FD031E01D101233DE0224A7B681100D7
:104590001800FBF7B9FD031E01D1022333E01E4AC8
:1045A0007B6811001800FBF7AFFD031E01D1032348
:1045B00029E01A4A7B6811001800FBF7A5FD031ECD
:1045C00001D104231FE0164A7B6811001800FBF795
:1045D0009BFD031E01D1052315E0124A7B681100E3
:1045E0001800FBF791FD031E01D106230BE00F21FC
:1045F0007B181A787B1801321A700F23FB181B786E
:10460000052BB8D900231800BD4604B080BDC046B4
:1046100000C6020804C6020808C602080CC6020842
:1046200010C6020814C6020890B583B000AFFB1D87
:1046300001221A7020E05B4B1B78FA1D12789A4217
:1046400006D1FB1D1B78013B574A0021D1540EE0D7
:10465000544B1A78FB1D1B785C1EFB1D1B78190040
:10466000100000F089FA03001A004F4B1A55FB1D89
:104670001A78FB1D01321A70FB1D1B78032BDAD947
:1046800014F010FA14F0CAFB11F0F0F811F096FFD4
:1046900010F0B8FC14F0C8FE11F004F814F0FEFE9F
:1046A00011F0F0FF031E03D0FFF7A0FEFEF712FE8D
:1046B000FFF7B2FE031E21D03C4B01221A703220BC
:1046C00014F04CFF0DF08EFF394BE12252029A603C
:1046D000BB1D01221A700CE0354B9A68BB1D1B787C
:1046E0001100180015F0E2FBBB1D1A78BB1D01324A
:1046F0001A70BB1D1B78052BEED904E0322014F094
:104700002DFF0DF06FFFFEF7BDFE10F01BFD254BDA
:104710001B78002B13D180231B022648012219008D
:104720001BF083FAFA235B00180014F017FF8023B4
:104730001B022048002219001BF077FA26E0802394
:104740001B021C48012219001BF06FFAFA235B00C0
:10475000180014F003FF80231B02164800221900E2
:104760001BF063FA642014F0F9FE80231B02114849
:10477000012219001BF059FA642014F0EFFE802387
:104780001B020C48002219001BF04FFA06F0D6F865
:1047900014F08CFB084B01221A70C046BD4603B0D2
:1047A00090BDC046B1000020380B0020401400200E
:1047B0000411002000040050B913002080B500AFA0
:1047C00018F080FF0DF066FBFFF72EFF06F0DAF819
:1047D00015F00EFDC046BD4680BD0000F0B58DB0A1
:1047E00000AF1F23F918087069460E001321182323
:1047F000CB18D9190020087017211823CB18D91904
:104800000020087016211823CB18D9190020087031
:1048100015201823C318D919002008701420182354
:10482000C318D91900200870D04909780800013848
:1048300078623961002078613A697B691000400F25
:104840003A617B61DD0005433B69DC003960002093
:1048500078603C687D682300580F2B00DB00FB600C
:10486000FB680343FB602300DB00BB600B000733E6
:10487000DB08DB006A46D31A9D466B4600333B6279
:1048800016211823CB18DB1900221A7018E0162005
:104890001823C318DB191B783A6A0021D154182356
:1048A000C318DB191A78B24B52000021D1521823D9
:1048B000C318DB191A781823C318DB1901321A70D0
:1048C000AA4B1B78162218215218D21912789A4234
:1048D000DDD315211823CB18DB1918228A18D21919
:1048E000127801321A701F23FB181B78013B3A6AB9
:1048F000080018240919C9190978D1541823C318B4
:10490000DB1918228218D219127801321A70172373
:1049100018229B18DB1901221A7050E01F23FB1884
:104920001B785A1E17241823E318DB1918789149AD
:104930001300DB009B1A1B185B005B5A002B34D062
:104940001F23FB181B785A1E894B5200D35A1AB2E8
:1049500020001823C318DB191B78013B0121994063
:104960000B001BB2134319B21F23FB181B785A1EEE
:1049700089B27F4B5200D1521F23FB181B785A1E5D
:104980001823C318DB1918787A491300DB009B1A27
:104990001B185B005B5ADB089BB2013B3A6A15218E
:1049A00018200918C9190978D15417211823CB18D0
:1049B000DB191A781823CB18DB1901321A70172368
:1049C00018229B18DB191B78062BA7D91423182251
:1049D0009B18DB1900221A7015221823D318DB1933
:1049E00018215218D219127801321A70162318227F
:1049F0009B18DB1900221A709BE0162318229B18C3
:104A0000DB191B783A6AD35C1A00152318215B184E
:104A1000DB191B78013B9A4200D080E01723182253
:104A20009B18DB1901221A7072E016241823E31870
:104A3000DB191A7817251823EB18DB1918784D495C
:104A40001300DB009B1A1B185B005B5A002B55D030
:104A50001823E318DB191A781823EB18DB191878D8
:104A600044491300DB009B1A1B185B005B5ADB08F0
:104A70009BB2013B3A6AD35C002B3FD12000182344
:104A8000C318DB191A783A4B5200D35A1AB22C00C9
:104A90001823E318DB191B78013B012199400B0017
:104AA0001BB2134319B21823C318DB191A7889B241
:104AB0002F4B5200D1521823C318DB191A78182330
:104AC000E318DB1918782B491300DB009B1A1B181D
:104AD0005B005B5ADB089BB2013B3A6A1521182048
:104AE0000918C9190978D15414221823D318DB19CD
:104AF00018215218D219127801321A70172118236E
:104B0000CB18DB191A781823CB18DB1901321A706D
:104B1000172318229B18DB191B78062B85D9162121
:104B20001823CB18DB191A781823CB18DB1901329C
:104B30001A700E4B1B78162218215218D2191278AF
:104B40009A4200D259E7142318229B18DB191B78CC
:104B5000002B00D03AE7132318229B18DB191B788F
:104B6000B5461800BD460DB0F0BDC046B0000020EF
:104B70005411002000000020B0B58AB000AF020040
:104B8000FB1D1A70BB1D0A1C1A700C23FB18A44ACB
:104B900012881A800222002199541323FB18002244
:104BA0001A702723FB1800221A701223FB18002208
:104BB0001A702623FB1800221A709A4B0322002138
:104BC000180022F05CFBFB1D1B78013B964A00217C
:104BD000D154FB1D1B78013B944A0021D154012381
:104BE0003B622EE0FB1D1B785A1E91491300DB002F
:104BF0009B1A3A6A9B185B005B5A002B1ED0FB1D68
:104C00001B785A1E8A491300DB009B1A3A6A9B18CC
:104C10005B005B5ADB089AB2BB1D1B789BB29A42C1
:104C20000CD1BB1D1B78013B7F4A0121D1547D4B28
:104C3000BA1D12781A703B6ADBB2ECE03B6A0133B2
:104C40003B623B6A062BCDDD0123FB6111E0FB1DBE
:104C50001B78FA699A4209D0FB69013B724AFF212D
:104C6000D154FB69013B714A0021D154FB690133E6
:104C7000FB61704B1B781A00FB699342E7DD73E020
:104C80000C243A19684B1100180000F0D5F8030005
:104C90001A0027217B1801321A707A18BB1D12786E
:104CA0001B789A4268D07B181B78013B3A19012186
:104CB000D1541B23FB1801221A7050E027243B1902
:104CC0001B785A1E1B257B19187859491300DB00E5
:104CD0009B1A1B185B005B5A002B3AD03B191B78C0
:104CE0005A1E7B19187852491300DB009B1A1B18B7
:104CF0005B005B5ADB089AB212217B181A707B1892
:104D00001B78013B0C22BA18D35C002B21D13B1934
:104D10001B78013B444AD25C13203B1801321A70C5
:104D20007B181B78013B404AD35C05003A18127887
:104D30009A420ED208007B181B78013B3A4A791937
:104D40000978D1543B181B78013B384A3919097846
:104D5000D1541B217B181A787B1801321A701B233F
:104D6000FB181B78062BA9D90C23FB18180000F0A0
:104D7000A7F8031E84D000E0C04613E02622BB182B
:104D80001B78BA18591C11701900264B27203A18A5
:104D900012785A5401007B181B785A1E7B1823493D
:104DA0008A5C1A702723FB181B78013B1F4AD35CCF
:104DB000002BE3D101237B6129E0FB1D1B785A1EE8
:104DC0001B491300DB009B1A7A699B185B005B5A36
:104DD000002B19D0FB1D1B785A1E15491300DB0050
:104DE0009B1A7A699B185B005B5ADB089BB2BA1D61
:104DF0001278013A0C498A5C013A0A498A5C93426A
:104E000002D17B69DBB206E07B6901337B617B69A0
:104E1000062BD2DD00231800BD460AB0B0BDC04647
:104E200018C60208A81D0020F0110020F41100206F
:104E300000000020B000002080B584B000AF786092
:104E400039600F217B18FF221A700E23FB180022F5
:104E50001A703B681B78002B03D17B187A68127894
:104E60001A700023BB601BE0BB687A68D3181B78FC
:104E70000F217A1812789A420FD9BB683A68D31872
:104E80001B78002B09D1BB687A68D2187B1812787E
:104E90001A700E23FB18BA681A70BB680133BB6026
:104EA000064B1B781A00BB689342DDDB0E23FB1810
:104EB0001B781800BD4604B080BDC046B00000207D
:104EC00080B584B000AF78600F23FB1801221A7000
:104ED0000023BB600CE0BB687A68D3181A780F21F6
:104EE0007B18791809780A401A70BB680133BB60D7
:104EF000064B1B781A00BB689342ECDB0F23FB18B0
:104F00001B781800BD4604B080BDC046B00000202C
:104F1000F0B587B002AF0200FB1D1A70834A844BC4
:104F20001100180022F02CF9814B1800FBF7F6F85D
:104F300003009AB27E49FB1D187801235B4200935F
:104F4000322314F021FF0F23FB1801221A701BE0FB
:104F50000F243B191A787749754B180022F010F985
:104F6000734B1800FBF7DAF803009AB27049FB1D87
:104F7000187801235B420093322314F005FF3B199C
:104F80001A783B1901321A700F23FB181B78052B76
:104F9000DED96949FB1D187801235B420093322357
:104FA000032214F0F1FE0E23FB1800221A70A7E072
:104FB0000E243B191B785A1C60495D4B180022F0E7
:104FC000DFF85B4B1800FBF7A9F803009AB25849C9
:104FD000FB1D187801235B420093322314F0D4FEAA
:104FE0003B191A7856491300DB009B1A5B005B5A89
:104FF0001A0013005B009B185B00524A99184C4B37
:105000000522180022F06FF94949FB1D1878012389
:105010005B4200933223052214F0B6FE4A49FB1D81
:10502000187801235B4200933223012214F0ACFE76
:105030000D23FB1801221A704DE00E23FB181A787D
:105040000D23FB1818783E491300DB009B1A1B1830
:105050005B005B5A002B06D13C49354B00221800FF
:1050600022F08EF822E00E257B191A780D26BB1946
:10507000187833491300DB009B1A1B185B005B5A3E
:10508000DB089BB21C007B191A78BB1918782C49D5
:105090001300DB009B1A1B185B005B5A1A000723E6
:1050A00013402B492248220022F06AF8204B1800B6
:1050B000FBF734F803009AB21D49FB1D1878012351
:1050C0005B420093322314F05FFE0D217B181A78A7
:1050D0007B1801321A700D23FB181B78052BACD9F5
:1050E0001C49FB1D187801235B42009332230222E6
:1050F00014F04AFE0E217B181A787B1801321A70C0
:10510000154B1B780E22BA1812789A4200D24FE73C
:105110001249FB1D187801235B42009332230122C0
:1051200014F032FEC046BD4605B0F0BD1CC60208F4
:10513000E80A002030C6020838C602083CC6020849
:105140000000002020C0020848C602084CC6020821
:1051500050C6020858C60208B00000205CC602080B
:1051600090B587B002AF0200FB1D1A703C4A3D4B60
:105170001100180022F004F83A4B1800FAF7CEFF9D
:1051800003009AB23749FB1D187801235B42009354
:10519000322314F0F9FD0F23FB1801221A703EE0B0
:1051A0000E23FB1801221A702EE00F203B181B78EB
:1051B0005A1E2D4B5200D35A19000E243B191B784E
:1051C000013B802212021A4113000B4016D03B18FB
:1051D0001A783B191B782549224821F0D1FF214B31
:1051E0001800FAF79BFF03009AB21E49FB1D1878BE
:1051F00001235B420093322314F0C6FD0E217B187D
:105200001A787B1801321A700E23FB181B780A2BB0
:10521000CBD90F217B181A787B1801321A70144BE6
:105220001B780F22BA1812789A42B9D9114A0D4B3D
:105230001100180021F0A4FF0A4B1800FAF76EFFC6
:1052400003009AB20749FB1D187801235B420093C3
:10525000322314F099FDC046BD4605B090BDC0464E
:1052600060C60208E80A0020503000207CC6020810
:10527000B000002090C60208F0B589B002AF02006D
:10528000FB1D1A701223FB1800221A8015F030F94A
:105290000300FB60FB6800221A70CA4B1B781A00DF
:1052A000C949CA4B180021F06BFFC84AFB681100BE
:1052B000180021F0ECFFC64B1B781A00C549C34B00
:1052C000180021F05DFFC14AFB681100180021F0B1
:1052D000DEFFC149BD48062300930223002221F0CE
:1052E0004FFFBA4AFB681100180021F0D0FFBB4AFB
:1052F000BB49B64B180021F043FFB44AFB681100CC
:10530000180021F0C4FFB74AB749B04B180021F08C
:1053100037FFAE4AFB681100180021F0B8FFB34A0E
:10532000AA4B1100180021F02BFFA84AFB681100BE
:10533000180021F0ACFF1723FB1801221A7048E077
:1053400017243B191A78AA49A04B180021F018FF1E
:105350009E4AFB681100180021F099FF3B191B7849
:10536000A44AD35C042B27D89A00A34BD3181B68FC
:105370009F46A24A954B1100180021F001FF1CE046
:105380009F4A924B1100180021F0FAFE15E09D4A49
:105390008E4B1100180021F0F3FE0EE09A4A8B4B61
:1053A0001100180021F0ECFE07E0984A874B11002D
:1053B000180021F0E5FE00E0C046844AFB681100B9
:1053C000180021F064FF17217B181A787B1801322E
:1053D0001A701723FB181B78052BB1D98C4A7B4B0D
:1053E0001100180021F0CCFE784AFB68110018006B
:1053F00021F04DFF1623FB1801221A7049E01620F8
:105400003B181B785A1E834913005B009B185B01F5
:105410005B58002B0DD13B181A787F496B4B180055
:1054200021F0AEFE694AFB681100180021F02FFF41
:1054300029E01626BB191C78BB191B785A1E754922
:1054400013005B009B185B01CB1828331B68180006
:105450000DF0C0FD03001D00BB191B785A1E6F4BD9
:105460009200D35818000DF0B5FD03006C49574861
:1054700000932B00220021F083FE544AFB681100A8
:10548000180021F004FF16217B181A787B180132CE
:105490001A701623FB181B78062BB0D9FB6818006E
:1054A000FAF73CFE03001A00FB689A185D4B1000E7
:1054B000190003231A0022F00AF8FB681800FAF713
:1054C0002DFE03001A00FB689A18574B10001900B4
:1054D0001D231A0021F0FBFFFB681800FAF71EFEDF
:1054E00002001223FB181A801523FB1801221A70E0
:1054F00023E0344B1B785A1E4C4B5200D35A1900F0
:1055000015203B181B78013B802212021A41130020
:105510000B400CD03B181A7845492C4B180021F051
:105520002FFE2A4AFB681100180021F0B0FE152159
:105530007B181A787B1801321A701523FB181B7818
:10554000052BD6D91223FB181C88FB681800FAF724
:10555000E5FD03009C420ED1FB681800FAF7DEFD62
:1055600003001A00FB689A18324B1000190005233B
:105570001A0021F0ACFFFB681800FAF7CFFD03001A
:105580001A00FB689A18274B1000190003231A0011
:1055900021F09DFFFB1D1B78002B0ED0FB6818002F
:1055A000FAF7BCFD03009AB2F968FB1D18780123D5
:1055B0005B420093322314F0E7FBC046BD4607B0C0
:1055C000F0BDC046B1000020B0C60208E80A0020C5
:1055D000B8130020CCC60208E8C6020808C70208B3
:1055E00014C702082CC7020838C7020854C70208AB
:1055F00068C70208241100206CC8020870C702089E
:1056000078C7020890C702089CC70208B8C70208FA
:10561000D8C702081C290020F0C70208601B002020
:105620000CC8020858C602083CC8020850300020C6
:105630005CC8020864C8020890B585B000AF786005
:105640000E23FB1800221A700F23FB1800221A7079
:105650004A4A7B6811001800FAF756FD031E03D171
:10566000474B1B781BB285E0464A7B681100180047
:10567000FAF74AFD031E01D1FF237BE07B681B780C
:10568000232B25D17B680133180020F0FEF902009E
:105690000E217B181A700A00BB181B78002B0AD049
:1056A000394B1B781100BA1812789A4203D87B182C
:1056B0001B781BB25EE0324B1B780E22BA181278B0
:1056C0009A4203D12E4B1B781BB253E0662351E064
:1056D0000F23FB1800221A701DE00F243B191A78C3
:1056E00013009B009B185B00284A9A187B681100E6
:1056F0001800FAF709FD031E07D17B681B78002B01
:1057000003D03B191B781BB234E00F217B181A78A9
:105710007B1801321A701C4B1B780F217A181278F3
:105720009A42DAD37B1800221A701DE00F243B192D
:105730001A7813009B009B185B00154A9A187B6827
:1057400011001800FAF7E0FC031E07D13B191B7883
:105750001B021BB2FE2213431BB20BE00F217B186E
:105760001A787B1801321A700F23FB181B78092B4B
:10577000DCD964231800BD4605B090BD80C802087E
:10578000B100002084C80208B0000020F8110020F9
:105790008C110020B0B586B000AF02003960FB1D4F
:1057A0001A701323FB1800221A7000237B61002358
:1057B0007B610FE07B699A00404BD2183B68110077
:1057C0001800FAF7A1FC031E01D1062371E07B69E2
:1057D00001337B617B69032BECDD01237B6112E0EC
:1057E0007A6913009B009B185B00354A9A183B6846
:1057F00011001800FAF788FC031E01D1072358E0B6
:105800007B6901337B612F4B1B781A007B699342C4
:10581000E6DB00237B6112E07A6913009B009B1892
:105820005B00294A9A183B6811001800FAF76CFCD3
:10583000031E01D107233CE07B6901337B617B6957
:10584000092BE9DD214B224A1A6019E01F4B1B6826
:105850001B681B68FB60FB681800FAF75FFC03001D
:10586000BB60BA68F9683B68180021F02BFD031E85
:1058700001D108231DE0154B1B685A68134B1A60B1
:10588000124B1B68002BE1D1FB1D1A7813009B0003
:105890009B185B000A4A9B183A681100180021F017
:1058A0000EFE13257C19FEF70DFC030023707B19F7
:1058B0001B781800BD4606B0B0BDC04630C1020816
:1058C000F8110020B00000208C11002048140020A6
:1058D0006C03002080B588B000AF02003960FB1D6A
:1058E0001A701723FB1800221A700023FB61002393
:1058F000BB610023FB6129E0FA6913009B009B1840
:105900005B005B4A9A183B6811001800FAF7FCFB31
:10591000031E18D1FB1D1B785A1E564B5200D35A3A
:105920001AB20121FB6999400B001BB2134319B253
:10593000FB1D1B785A1E89B24E4B5200D1521723C1
:10594000FB181B7890E0FB690133FB61FB69092BB5
:10595000D2DD0023BB610FE0BB699A00464BD21831
:105960003B6811001800FAF7CFFB031E01D1062394
:105970007AE0BB690133BB61BB69032BECDD01231A
:10598000BB6112E0BA6913009B009B185B003B4AA5
:105990009A183B6811001800FAF7B6FB031E01D1F4
:1059A000072361E0BB690133BB61354B1B781A00EB
:1059B000BB699342E6DB334B334A1A6019E0314B43
:1059C0001B681B681B683B613B691800FAF7A6FB64
:1059D0000300FB60FA6839693B68180021F072FC2B
:1059E000031E01D108233FE0264B1B685A68254B54
:1059F0001A60244B1B68002BE1D10023FB6118E0E7
:105A00001B49FA6913009B009B185B005B5C002B31
:105A10000CD1FA6913009B009B185B00144A9B1879
:105A20003A681100180021F04AFD05E0FB690133D6
:105A3000FB61FB69092BE3DDFB1D1B785A1E0D4B37
:105A40005200D35A1AB20121FB6999400B001BB2D4
:105A5000134319B2FB1D1B785A1E89B2054B520025
:105A6000D1521723FB181B781800BD4608B080BD23
:105A70008C1100202412002030C10208F8110020EF
:105A8000B00000204C1400206C03002080B586B0CC
:105A900000AFB9607A6019000F23FB18021C1A705E
:105AA0000E23FB180A1C1A701523FB18D94A12780A
:105AB0001A703B6A002B03D0D64B20221A7002E0EA
:105AC000D44B00221A702423FB181B78002B04D01F
:105AD0001623FB1822221A8003E01623FB1820222B
