:020000040800F2
:1000000000400220F95E0108895F010841410108B2
:1000100000000000000000000000000000000000E0
:100020000000000000000000000000007F9F0108A9
:10003000000000000000000091A001082D4101080F
:10004000895F0108895F0108895F0108895F0108EC
:10005000895F0108895F0108895F0108895F0108DC
:10006000895F010809450108294501087D45010806
:10007000895F0108895F0108895F0108895F0108BC
:10008000895F0108895F0108895F0108895F0108AC
:10009000895F0108895F0108895F0108895F01089C
:1000A000895F0108895F0108895F0108F54101083E
:0C00B000A14201084D430108895F0108CE
:1000C00010B5064C2378002B07D1054B002B02D02E
:1000D000044800E000BF0123237010BD780A00200F
:1000E0000000000020AA0208044B10B5002B03D02A
:1000F0000349044800E000BF10BDC04600000000F6
:100100007C0A002020AA020802780B78002A03D07B
:10011000013001319A42F7D0D01A70470023C25CF7
:100120000133002AFBD1581E7047000002B471460B
:1001300049084900095C49008E4402BC7047C0462A
:1001400003B47146490840004900095A49008E44E9
:1001500003BC7047002243088B4274D303098B42CF
:100160005FD3030A8B4244D3030B8B4228D3030C87
:100170008B420DD3FF22090212BA030C8B4202D329
:100180001212090265D0030B8B4219D300E0090A51
:10019000C30B8B4201D3CB03C01A5241830B8B425A
:1001A00001D38B03C01A5241430B8B4201D34B0343
:1001B000C01A5241030B8B4201D30B03C01A5241A8
:1001C000C30A8B4201D3CB02C01A5241830A8B422D
:1001D00001D38B02C01A5241430A8B4201D34B0216
:1001E000C01A5241030A8B4201D30B02C01A52417A
:1001F000CDD2C3098B4201D3CB01C01A524183092E
:100200008B4201D38B01C01A524143098B4201D367
:100210004B01C01A524103098B4201D30B01C01A92
:100220005241C3088B4201D3CB00C01A524183080C
:100230008B4201D38B00C01A524143088B4201D339
:100240004B00C01A5241411A00D201465241104699
:100250007047FFE701B5002000F0F0F802BDC0468E
:100260000029F7D076E7704703460B437FD400227E
:1002700043088B4274D303098B425FD3030A8B423A
:1002800044D3030B8B4228D3030C8B420DD3FF22A4
:10029000090212BA030C8B4202D31212090265D072
:1002A000030B8B4219D300E0090AC30B8B4201D325
:1002B000CB03C01A5241830B8B4201D38B03C01A6C
:1002C0005241430B8B4201D34B03C01A5241030BE3
:1002D0008B4201D30B03C01A5241C30A8B4201D394
:1002E000CB02C01A5241830A8B4201D38B02C01A3F
:1002F0005241430A8B4201D34B02C01A5241030AB6
:100300008B4201D30B02C01A5241CDD2C3098B429A
:1003100001D3CB01C01A524183098B4201D38B0117
:10032000C01A524143098B4201D34B01C01A5241BA
:1003300003098B4201D30B01C01A5241C3088B42FF
:1003400001D3CB00C01A524183088B4201D38B00EA
:10035000C01A524143088B4201D34B00C01A52418C
:10036000411A00D201465241104670475DE0CA0F63
:1003700000D04942031000D34042534000229C4623
:1003800003098B422DD3030A8B4212D3FC2289012D
:1003900012BA030A8B420CD3890192118B4208D303
:1003A000890192118B4204D389013AD0921100E065
:1003B0008909C3098B4201D3CB01C01A5241830979
:1003C0008B4201D38B01C01A524143098B4201D3A6
:1003D0004B01C01A524103098B4201D30B01C01AD1
:1003E0005241C3088B4201D3CB00C01A524183084B
:1003F0008B4201D38B00C01A5241D9D243088B42A1
:1004000001D34B00C01A5241411A00D20146634643
:1004100052415B10104601D34042002B00D54942A7
:10042000704763465B1000D3404201B5002000F0E6
:1004300005F802BD0029F8D016E770477047C0469E
:100440008446100062468C461900634600E0C046B0
:100450001FB501F0E1FF002801D40021C8421FBDF3
:1004600010B501F025FF4042013010BD10B501F07C
:10047000D3FF002801DB002010BD012010BDC046C5
:1004800010B501F0C9FF002801DD002010BD0120DA
:1004900010BDC04610B501F04FFF002801DC002060
:1004A00010BD012010BDC04610B501F045FF002869
:1004B00001DA002010BD012010BDC04684460800AE
:1004C0006146FFE71FB500F059FB002801D4002169
:1004D000C8421FBD10B500F0E1FA4042013010BD26
:1004E00010B500F04BFB002801DB002010BD0120FF
:1004F00010BDC04610B500F041FB002801DD002012
:1005000010BD012010BDC04610B500F0EFFA002864
:1005100001DC002010BD012010BDC04610B500F068
:10052000E5FA002801DA002010BD012010BDC04608
:10053000002B11D1002A0FD1002900D1002802D0B0
:100540000021C943080007B4024802A140180290E4
:1005500003BDC046E9FEFFFF03B4684601B502983B
:1005600000F0BAF8019B9E4602B00CBC7047C04632
:10057000F0B5CE469946030C9C46130447461B0C27
:100580001D000E0061460404240C80B50700100C09
:100590004B436543414360432C0CC01824188C46E0
:1005A000A34203D980235B029846C4444946794359
:1005B0005643230C2D042D0C89196344240460191F
:1005C000C918C0BCB946B046F0BDC0469E2110B5A2
:1005D000C905041CFFF7A2FF002803D1201C00F06E
:1005E000D3FE10BD9E21201CC90500F069FC00F05F
:1005F000CBFE80231B069C466044F2E770B50022C8
:100600000C4B04000D00FFF74FFF002804D1200021
:10061000290002F081FE70BD064B00222000290057
:1006200002F04EFA02F078FE80231B069C466044DE
:10063000F1E7C0460000E04170B50022002304004D
:100640000D00FFF713FF002808D12000290000F05B
:100650000FF802000B001000190070BD80231B066C
:10066000E918200000F004F8002342428B41F2E731
:1006700070B500220B4B0D00040001F03BFFFFF7AB
:10068000BDFF060002F0B2FE0022074B01F032FF70
:1006900002000B002000290002F012FAFFF7AEFF63
:1006A000310070BD0000F03D0000F04170B5060063
:1006B000080002F06DFE0022064B01F01BFF0D004A
:1006C0000400300002F092FE2B00220000F012FF26
:1006D00070BDC0460000F041F0B557464E46454655
:1006E000DE46E0B504000D009246994683B08B4289
:1006F00030D82DD04946504602F084FF290006002C
:10070000200002F07FFF331A9846203B34D49B46EA
:1007100053465A46934042461F00534693401E009C
:10072000AF423BD8AF4200D179E05B46A41BBD414C
:10073000002B00DA76E000220023009201930123CF
:100740005A4693400193012342469340009329E087
:100750008242CFD900220023009201930C9B002BF0
:1007600001D01C605D600098019903B0F0BCBB46ED
:10077000B246A946A046F0BD42469B4620239B1A9E
:100780005246DA40414613004A468A401700424624
:100790001F43534693401E00AF42C3D9002200239B
:1007A000009201934346002BD8D0FB0772081A43EE
:1007B00046467B080EE0AB4201D1A2420CD8A41AF7
:1007C0009D41012024196D410021013E24184D4115
:1007D000002E06D0AB42EED9013E24196D41002E09
:1007E000F8D1009801995B4600196941002B24DB80
:1007F0002B005A464446D3402A00E2401C005B4688
:100800001500002B2ADB26009E40330026004746B9
:10081000BE403200801A9941009001919EE7A342A8
:10082000BCD882E74246202300219B1A0022009177
:1008300001920122DA40019285E7424620239B1A69
:100840002A0046469A402300F340444613432A00B8
:10085000E2401C005B461500002BD4DA42462F0014
:100860002023260097409B1ADE403B003343CDE710
:10087000F0B546464F46D6464502C0B5C30F4700C1
:1008800098460E1C6D0A3F0E5BD0FF2F21D08023AF
:10089000ED00DB041D43002399469A467F3F740216
:1008A0007300640A1B0EF60F002B20D0FF2B43D0E1
:1008B00080220020E400D20414437F3B4246FF1A0A
:1008C0004B4672400F2B00D99DE071499B00CB58DD
:1008D0009F46002D5AD108239946063B74029A463A
:1008E0007300FF27640A1B0EF60F002BDED1002CCD
:1008F0003BD1012342464946724019430E2918D87C
:100900006448890041588F465346022B00D1B8E015
:10091000032B6ED042462C00012B40D10020002436
:10092000C0052043D2071043E0BCBA46B146A846F2
:10093000F0BDFF200024F3E7002C20D10223FF3F6D
:10094000D8E7002D05D104239946033B00279A469A
:10095000A5E7280002F038FE7627431F9D400023BC
:100960007F4299469A463F1A99E7200002F02CFEF2
:10097000431F9C4076235B421B1A00209EE7032303
:100980004A461A4391460320FC3397E70C239946C5
:10099000093BFF279A4682E703282CD03200380013
:1009A0007F30002847DD630704D00F232340042B4A
:1009B00000D00434230103D53800374B80301C406D
:1009C000FE28B6DCA401640AC0B2A9E78024002294
:1009D000FF20E403A4E78023DB031D4201D01C4277
:1009E0000BD08024E4032C4364024246FF20640AB7
:1009F00096E746462C008023DB031C43640232004A
:100A0000FF20640A8CE76D01600185422DD21B2313
:100A10000024013F0126290064006D00002901DB4C
:100A2000854201D32D1A3443013B002BF3D16B1EB9
:100A30009D412C43B3E701231B1A1B2B00DD6DE7FF
:100A400021009E37D940BC400B00611E8C412343DE
:100A5000590704D00F211940042900D0043359014B
:100A600013D49B0100205C0A5AE71A2301242D1A93
:100A7000D0E7981E43425841404232000024C0B2A1
:100A80004EE74246FF2000244AE70120002447E7C2
:100A900090E40208D0E40208FFFFFFF770B54200BF
:100AA0004E024C0045026D0A120EC30F760A240E48
:100AB000C90FFF2A10D0FF2C0CD00120A2420AD16E
:100AC000B54208D18B420FD0002A04D12800431E22
:100AD000984100E0012070BD0120FF2CFBD135437F
:100AE000F9D14B401800F6E70020F4E730B542009A
:100AF00044024D02C30F4800640A120E6D0A000E34
:100B0000C90FFF2A18D0FF280AD0002A1ED10028BA
:100B10000AD1002D29D0002C2DD14800013830BD3C
:100B2000002D25D1002A01D1002CF6D08B4219D0FE
:100B300001205B421843F2E7002C19D1FF28F7D1BE
:100B4000002D15D100208B42F2D1E8E70028EFD02C
:100B50008B42EDD18242EBDC04DBAC42E8D80020D2
:100B6000AC42DCD258000138D9E7002CD7D0DFE7FF
:100B700002204042D3E78B42DAD1EEE730B54200A3
:100B800044024D02C30F4800640A120E6D0A000EA3
:100B9000C90FFF2A17D0FF280AD0002A1BD100282E
:100BA0000AD1002D1DD0002C2DD14800013811E0B4
:100BB000002D0ED1002A01D1002CF6D08B420CD191
:100BC0005800013806E0002C03D1FF2805D1002D84
:100BD00015D0022030BD002806D101205B42184309
:100BE000F8E7002CF6D0F8E78B42F6D18242F4DC2D
:100BF000E6DBAC42F1D80020AC42EBD2E0E70020CB
:100C00008B42EAD1E6E78B42E7D1F2E7F0B54F46F7
:100C10004646D6464400C0B546020F1C760A240E4E
:100C2000C50F002C00D1DAE0FF2C74D08023F60031
:100C3000DB041E43002399469A467F3C7B025B0AF5
:100C400098467B001B0EFF0F002B74D0FF2B00D1AA
:100C50008EE042468021D200C90411437F3B2A0026
:100C6000E4184B467A408846D2B20A2B75DC4B46D4
:100C70000020022B0FDD494601238B40A621C9002D
:100C80000B4269D1902189000B4200D000E18821FC
:100C9000194200D0F5E041460904090C434608001A
:100CA000350C36041B0C360C704369435E435D43C0
:100CB0007618030C9B19994203D9802149028C466E
:100CC000654400041904000C09188E01701E864149
:100CD0001B0C890E5B190E439B011E431B016CD438
:100CE00023007F33002B00DCB1E0150071070BD02F
:100CF0000F2021003040042806D00436320103D5ED
:100D00006E4B1E400B008033FE2B00DDBDE0B201B8
:100D1000520ADBB248E0002E00D092E00823994648
:100D2000063B9A467B025B0A98467B00FF241B0E1B
:100D3000FF0F002B8AD14246002A64D14946013276
:100D4000114389460A2908DC7D400120EAB20229C4
:100D500091DC1500002227E015005346022B00D13C
:100D600093E0032B1AD0012B2CD1002300221BE08F
:100D70004346FF34002B55D003214B460B4319004B
:100D80000A2B00DC92E00F2B00D08CE08022D203F3
:100D9000164203D04346134200D17DE08022D203A5
:100DA00032435202520AFF23D805ED07104328436D
:100DB000E0BCBA46B146A846F0BD01231500710853
:100DC0001E400E4323008033611C002B41DD72075F
:100DD00094D00F223240042A00D08EE78EE7002EF6
:100DE00005D104239946033B00249A4626E73000A8
:100DF00002F0EAFB7624431F9E400023644299469A
:100E00009A46241A1AE7404602F0DEFB4B46241AA3
:100E1000763C0A2BA1DC4346053883407D4098464A
:100E2000EAB224E74A46023313432A007A40D2B298
:100E30000A2B92DC49461500002926D0994602204B
:100E400019E70C239946093BFF249A46F6E615005C
:100E500021000122D31A1B2B00DD86E79E313200D0
:100E60008E40DA40731E9E413243530704D00F2355
:100E70001340042B00D00432530110D5012300226B
:100E800092E73D004646824667E7FF2300228BE754
:100E900080220025D20386E73D001A4383E79201B2
:100EA0000023520A80E73D00464677E72A000123E7
:100EB0007A408B400320D2B2E9E6C046FFFFFFF73D
:100EC000F8B54746CE46430280B55F0A9B09450008
:100ED0004A009C464B02C40FCE0F2D0E580A120E2C
:100EE0009909FF2A6BD001235E40AB1AB4424BD064
:100EF000002B00DCFFE0002A00D188E0FF2D00D1AC
:100F0000EFE08022D204114301201B2B08DC0800F3
:100F10002022D840D31A99400B005A1E93411843FF
:100F200063461B1A9C4663465B0100D4CDE06346D2
:100F30009F01BF09380002F047FB3B0005388340A2
:100F4000854200DCA2E0B74A2D1A1A4094465A079F
:100F500000D1C3E00F221340042B00D1BEE00423D4
:100F60009846C44463465B0100D4B7E0681CFE2D7C
:100F700000D0A5E0FF200022C0051043E407204375
:100F8000C0BCB946B046F8BD002B00DCEBE1002A3E
:100F900046D0FF2D00D1A4E08022D20411431B2BA8
:100FA00000DCFBE0052398462B00C4446246D708CA
:100FB000FF2B00D195E07A02520AD8B2DCE72B0071
:100FC000FF3B9946002918D101235E40B44200D16D
:100FD000CAE04B46002B2DD0002D00D03CE1FF2372
:100FE0006446002C00D15FE15D1E012B00D174E14D
:100FF0003400FF2B74D02B0003E1B44200D19CE0FD
:10100000002B17D0002DEAD0070034006CE0002937
:10101000CCD05A1E012B2BD0FF2B62D0130073E7CC
:101020000029C3D05A1E012B00D11EE1FF2B58D03E
:101030001300B4E7FE226B1C1A420DD1002D60D0C4
:101040006346002B00D020E1002900D028E1802257
:101050000024FF20D2038FE763465F1A7B0100D58F
:10106000FEE0002F00D065E700240020002283E787
:101070006346591A4B0100D419E18F01BF093800AA
:1010800002F0A2FA3B000538834001252022401BD4
:101090000130121A19009340C1405A1E934119435E
:1010A0008C460B1EE1D05B0700D152E10F230025D7
:1010B0000B40042B00D052E701204A0100D492E0FB
:1010C000C0B263469A01520A56E763465B0705D0F1
:1010D0000F2362461340042B00D040E72B0065E746
:1010E0000700002F00D145E78022D2033A43520285
:1010F000FF20520A40E7002B79D1FE226B1C1A42D6
:10110000AAD16346002B00D1F5E0002900D1D1E03F
:101110005F1A8023DB041F4200D10EE162460124E6
:101120008A1A944600203440002A00D124E7012086
:101130001A42C6D10023D7083DE7002B17D0002D57
:1011400000D0AFE0FF236546002D00D1ADE05E1E6C
:10115000012B00D189E0FF2BC2D01B2E00DCABE0BD
:101160004B1D9C46130021E74B46002B70D1FE22FD
:101170006B1C1A425ED1002D00D0C3E06346002BE9
:1011800000D1D0E0002900D194E00A00624453016C
:1011900000D4D8E092010120520AEDE60800202296
:1011A000D840D31A99400B005A1E934103439C44E4
:1011B00063465B0189D50135FF2D00D1DAE6624631
:1011C00001231949134052080A401A431300944658
:1011D0005B0704D00F231340042B00D0BFE6634607
:1011E0005B0100D5C2E66346DF082B00E3E6531B34
:1011F000002D00D1F4E680206446C0040443A446D8
:10120000340001201B2B09DC20256046D840EB1A56
:1012100065469D402B005D1EAB4118430B1A9C4652
:10122000150080E6FFFFFFFBFFFFFF7DFE226B1C2A
:101230001342A3D0FF2B00D19CE6614449084A0722
:1012400049D00F220A40042A45D00A1D9446ADE633
:10125000002D00D176E78DE63400FF2000228BE6DA
:1012600063460124CF1A344064E661444B016DD5D6
:1012700048084449014043072CD00F230340042B66
:1012800028D00B1D9C46022390E6002900D12BE7B5
:101290008023DB039F4200D226E7984200D323E756
:1012A0000124344007001FE734008C467EE601230A
:1012B000CF0880E600237EE620206546801B85401F
:1012C00063462800F340451EA84103439C46150091
:1012D0008C446DE70223CF086DE60F1B7B0128D5F8
:1012E000BF01BF09380002F06FF93B0005388340A9
:1012F00034000125CAE6002900D1B5E60124070023
:10130000344058E66346002B00D1E9E6002900D1BD
:10131000EAE68023DB039F4200D2E5E6984200D351
:10132000E2E60700E0E6002900D19EE60023CF08B0
:1013300041E634000123FF083DE6002F00D193E68B
:101340000023FF0837E60023D70834E60123CF083F
:1013500031E680220B00D20401201340114200D05C
:10136000AEE6CF0827E6002B00D15FE7561B002D25
:1013700001D13300E7E680236046DB04184384464E
:10138000EBE6C046FFFFFF7D41024200C30F490A62
:101390000020120E7E2A03DD9D2A02DD094A9818DC
:1013A0007047802000040143952A07DC9620821AAA
:1013B000D1404842002BF3D10800F1E7963A914022
:1013C000F7E7C046FFFFFF7F70B5002812D0C317B4
:1013D000C5185D40C40F280002F0F6F89E231B1AC2
:1013E000962B0FDC082838D0083885406D026D0A2E
:1013F000D8B202E0002400200025C0052843E407FD
:10140000204370BD992B14DC421F95402A001549DA
:10141000114055071CD00F252A40042A18D004314A
:10142000CA08490115D59F235202181A550AC0B29D
:10143000E3E705222900121AD14002001B32954031
:101440002A00551EAA410A43064911405507E2D118
:10145000CA085202550AD8B2CFE76D026D0A8E3023
:10146000CBE7C046FFFFFFFB10B5041E0DD002F016
:10147000ABF89E231B1A962B0CDC082834D00838B6
:1014800084406402640AD8B201E000200024C00550
:10149000204310BD992B13DC421F9440144A224074
:1014A00061071CD00F212140042918D00432D40830
:1014B000520115D59F236402181A640AC0B2E6E7E8
:1014C000020021001B3291400A00511E8A41052171
:1014D000091ACC401443064A22406107E2D1D408DD
:1014E0006402640AD8B2D2E76402640A8E30CEE79E
:1014F000FFFFFFFBF0B54F464646D646C0B582B06B
:10150000009001910E034C00CD0F710A009E5F0008
:10151000760F0E43009900920193C9008946190382
:101520007B0D9846019B490ADB0F9C46009B009A65
:101530005B0F0B434146640DD200611A654500D133
:10154000A6E0002972DD4746002F00D1DDE0CC4F38
:10155000BC4200D19AE10127382917DC80273F04DB
:101560003B431F2900DDDDE12027781A1F0087405B
:10157000BA461700CF4084463800574607436046B6
:101580008240CB40501E8241F61A17434B46DF1B68
:10159000B94580414042361A330200D4FFE076025A
:1015A000760A002E00D13CE1300002F00DF8030075
:1015B000083B20213800CA1AD0409E4002009F40BC
:1015C00032439C4200DDA6E1181B0130091A3E009F
:1015D0008F40C6407B1E9F4113008B4037431F4303
:1015E000C2403B0016000024134300D1DFE17B071B
:1015F00000D132E30F233A003B40042B04D03A1DC4
:10160000BA42BF417F42F619330200D423E39C4B18
:1016100001349C4200D1B4E09A4B64051E40640D35
:101620007707D20876021743360BACE0002900D1C9
:101630007EE04146091B002C00D060E134004846A2
:10164000044300D1C9E14C1E012900D12EE28C4D8A
:10165000A94200D124E20127382C11DC21001F29E6
:1016600000DD0BE2202437004846641AA740C8403A
:1016700007434846A040CE40441EA0419B1B074361
:10168000D71BBA4292415242654644469E1A83E7AE
:10169000002900DC9CE04746002F67D11F0017435C
:1016A00000D1E4E0481E012900D19BE1744FB9420A
:1016B00000D1EBE001270100382811DC1F2900DDF3
:1016C000C7E12027781A1F00844687401000C840D1
:1016D000074360468240CB40501E8241F6181743B4
:1016E0004F444F45804140423618330257D5644B32
:1016F00001349C4245D00121624B7A081E4039409A
:101700000A43F7071743760871E71F00174300D114
:10171000ADE04F1EBC46012900D182E1584FB942CD
:1017200000D190E161460127382900DD2EE718E756
:10173000554F611C394200D0D0E0310048461F00AF
:1017400001431743002C00D03DE1002900D1BCE14A
:10175000002F00D0BFE14B460021D8087707074390
:10176000F00806034C05360B640D0CE0444FBC42F8
:1017700000D18BE001273829B2DC80273F043B43AE
:101780009CE70026002724053443ED072C4338004E
:10179000210002B0E0BCBA46B146A846F0BD7B07C6
:1017A00004D00F233B40042B00D028E7F808344B2B
:1017B00077070743F0089C4200D04AE23B0003430E
:1017C00059D080263603064336032D4C360BDAE714
:1017D000002961D04146091B002C00D1B9E0284CFA
:1017E000A04500D1A5E10127382913DC8024240479
:1017F00026431F2900DDC8E1202437004846641A2B
:10180000A740C84007434846A040CE40441EA041E0
:101810009B190743BF189742924152424446D6183B
:1018200063E7380001F0D0FE030018331F2B00DC03
:10183000BFE63A00083882409C4200DD83E01B1B73
:10184000581C1F2800DCB4E117001F3BDF40202894
:1018500005D040231B1A9A40531E9A411743002477
:10186000002F0AD07B0700D0C4E626009EE74B4637
:101870000C00D8089BE70027014C002683E7C046F0
:10188000FF070000FFFF7FFFFE0700004B467707C2
:10189000D8080743F00891E7CD4F611C39426BD15E
:1018A000310048460143002C00D04BE11F00174394
:1018B000002900D181E1002F00D14CE74A444A457C
:1018C0008041F61840423618330200D5B0E11700C7
:1018D0009146374300D03EE7002654E74946891A2F
:1018E0008846C145BF41F11A7F42C91B0F0261D42E
:1018F00047460F4300D1BDE00E00474651E6B54CC8
:10190000A04500D100E10127382900DDB8E6802498
:1019100024042643A3E6B04EE41A16407B0700D009
:101920003FE743E70F001800203FF8408446202996
:1019300003D04027791A8B401A43531E9A416346BD
:1019400017001F4322E6A448E11A10404707C008C9
:1019500007E734004846044300D1FAE04C1E012951
:1019600000D1D7E09B4FB94200D1E2E00127382CEB
:1019700000DD4FE721003CE7964CA14200D1DDE0BD
:101980004A444A458041F31840421818C707520894
:1019900017434608520705D00F220C003A40042A8C
:1019A00000D02CE67607FF0837430009D9E6002768
:1019B0000026E8E64946571ABA4292419E1B524217
:1019C0006546B61AEDE5002900D0C6E0002F67D1C4
:1019D000802600257F4C3603D5E665460C001E00A8
:1019E000D008E4E64A444A458041F31840421818BA
:1019F0001100030200D496E0774B49081840C30752
:101A00000B434408490700D129E10F221A40042A58
:101A100000D1EAE01F1D9F42B641764236190224EA
:101A2000C4E649468F1AB9458041F61A4042361A33
:101A3000330206D47307FF0801211F43F00890E624
:101A400065460124ABE54B467707D8080743F00805
:101A5000B4E60F001800203FF8408446202903D048
:101A60004027791A8B401A43531E9A416346170048
:101A70001F4335E600250024002684E60C003500CF
:101A8000203CE540202905D04024611A8E4049467B
:101A9000314389464846411E884107002F43EFE500
:101AA000D2085F0765461743D80887E6171ABA4277
:101AB00092419E1B5242B61A3302C1D47307FF08EB
:101AC000654601211F43F0084BE6002F7BD0654699
:101AD0001E0091463FE6811A8846C145A441F11A8D
:101AE0006442091B80242404214277D0101A8242C8
:101AF000924107009E1B5242B61A374300D0A0E025
:101B00006546002400263EE65F07D2086546174377
:101B1000D80853E6811891429241F0185242801839
:101B2000030200D568E74707C9080F43C008012131
:101B300017E6D2085F071743D8083FE60C000026D7
:101B4000002720E6002956D15F07D2081743D8089E
:101B500034E60C001E00D00829E6C10870070143D6
:101B6000F008002F62D080242403204207D0DE0832
:101B7000264204D165463000D1085B0719434F0F58
:101B8000C900C9087F070F4318E60C003000203C4D
:101B9000E0408446202905D04024611A8E40494601
:101BA000314389464846411E8841614607000F433C
:101BB00030E620210027091A0EE51E00002F00D074
:101BC00022E5002458E7002500240026DBE5C04676
:101BD000FE070000FF070000FFFF7FFF47460F439F
:101BE00000D147E70E00C146B5E5DF0864070221D2
:101BF00027430009B5E51900C008770707431143DB
:101C0000F008002900D1D9E580210903084207D056
:101C1000DC080C4204D1D2085B071A4317002000ED
:101C20007B0FFF00FF085B071F43C7E50F00C5E5FB
:101C3000124BD20833405F075B02012417431E0B8F
:101C4000A1E5264212D00D4B6546020001241E403C
:101C5000E6E4210085E51700A8E53A00D4E4DB08B6
:101C600064071C432700022100097AE5C0087707B2
:101C7000074365460021F00873E5C046FFFF7FFF7C
:101C8000F0B5DE46454657464E46E0B587B0009271
:101C900001930B031B0B9B46CA0F4B0004008046AD
:101CA0005B0D029200D198E07C4A934237D05946AE
:101CB000420FC9000A43802109041143C200904623
:101CC000774A894692469A44002300240393009E53
:101CD000019F3B031B0B9B467B0030005B0DFD0F00
:101CE000002B59D06D4A934248D05946720FC90013
:101CF0000A438021090411438B466949F2008C464E
:101D000051466344CB1A9A460021029E6E40F6B2B9
:101D10000F2C00D9CEE0634BA4001B599F465A46B6
:101D20000243914600D090E09A4602239046082450
:101D30000393CCE7CB464246029D0399022900D18A
:101D4000DEE1032900D18DE0012900D079E12E00E8
:101D500000220023002490461B052343F60733434B
:101D60004046190007B0F0BCBB46B246A946A046A3
:101D7000F0BD002200249046484BEDE75A46009BF8
:101D80001A43494B9C46E244002A59D102231C4382
:101D9000002302219B46B8E75A46009B1A4349D0CC
:101DA0005B46002B00D19CE1584601F00DFC02007F
:101DB00003000B3A1D27009EBA1A19005846D64058
:101DC00008398840320002439346009A8A403749D6
:101DD00053448A4600219A4497E75B460343994659
:101DE00021D05B46002B00D169E1584601F0ECFBA5
:101DF0000B235B429C460200844466461D239B1BCA
:101E0000260011005846DE4008398840330003435D
:101E1000994623008B409846254B00249B1A9A46EE
:101E20000023039353E7002398469A460133042482
:101E300003934CE701231C43002301219B4664E7E5
:101E40000323320003211C435FE79A460323D9464C
:101E50000C2403933BE700238024984600260F4B75
:101E6000240379E780245B4624031C4324032E00CB
:101E700090460A4B240B6FE780244B4624032342F1
:101E800002D05B462342F0D080244B4624031C43FF
:101E90002403029E014B240B5EE7C046FF070000AF
:101EA00001FCFFFF0CE5020801F8FFFFF30300004F
:101EB0000DFCFFFFCB4500D2F8E000D1F3E0012399
:101EC0005B429C46444648460025E2445B46170E6A
:101ED0001B021F43190C3B04120200971F0C914672
:101EE00002910397FEF7BCF902007A430B04210C20
:101EF000804619438A4209D9009F0123BC465B42B0
:101F000061449C46E0448F4200D85CE1881A029903
:101F1000FEF7A6F9039A240442430904240C0300A3
:101F20000C43A24206D90099013B8C466444A1426D
:101F300000D842E1A01A424612041A4393464B4687
:101F400059461B0C1F0004930B0449460904090C55
:101F50000C001B0C5C43120C7B43884651437A43B4
:101F6000270CBC465B186344994203D9802149027F
:101F70008C466244190C24041B04240C8A181C1976
:101F8000904202D316D1A54214D25B46009F013B7A
:101F90004D4405934D459B41BC465B426344C0188C
:101FA000874200D302E1824200D929E100D124E135
:101FB000059B9B462C1BA542AD41009B801A6D42A0
:101FC000401B834200D10FE10299FEF749F9039AC1
:101FD0000B044243210C050019438A4200D9CBE08F
:101FE000881A0299FEF73CF9039A24044243090433
:101FF000240C03000C43A24200D9CAE04146A41AB3
:102000002A041A43049F13041B0C594340467B4384
:102010009C46150C68430B0C844463447D439842F2
:1020200003D98020400284466544180C09041B042F
:10203000090C40195B18844227D323D001233500B3
:102040001A43944B5344002B60DD510700D086E0C7
:102050002E00D1085A46D20106D55A468E4B1A4058
:1020600080239346DB0053448C4A934200DD80E694
:102070005A4652070A4390465A465B055402240BBF
:102080005B0D69E63500002BDBD0009D511EAC4690
:102090006444AC4200D29EE0844200D2E1E000D130
:1020A000EEE00A00CAE7424500D908E74B46DC07E4
:1020B000580843465B081C434346DD0706E701F02A
:1020C00083FA15239C4684440200634620321C2B6D
:1020D00000DC92E6230008388340994600239846A6
:1020E0009AE601F071FA02000300153220331C2A2F
:1020F00000DC5FE600990838814000228B4666E6E6
:1021000000222E0000249046654B25E62E0001217A
:10211000C91A382900DD1BE61F297EDC614814003E
:1021200050445B4682408340CC40501E8241234352
:102130001A435B46CB40510709D00F2111400429B7
:1021400005D0111D9142924152429B180A0019027A
:1021500000D49BE00022012300249046FCE50F21DF
:102160001140042900D173E7111D9142924152425E
:102170002E00C90893446DE7009B013D9C466144D5
:102180008B4200D92CE78A4200D829E7851E61449A
:1021900026E70099013B8C466444A14200D92DE713
:1021A000A24200D82AE7831E644427E7874200D072
:1021B000FEE6A94500D9FBE6F5E6A24200D8B9E65D
:1021C000831E6444B6E68A4200D89FE6BC46831E5E
:1021D000984661449AE60A00844200D02EE74B45B7
:1021E00000D02BE735002CE72A4B2F4A5344924569
:1021F00043DB0122002193442CE7AC4200D8D7E610
:1022000002235B429C4600994D444D459B41E3446B
:102210008C465B426344C018CCE61F204042C31A80
:102220005846D840202904D05946204B5344994061
:102230000A43531E9A410723190002430024114008
:10224000134209D008331340042B1DD0131D9342B1
:1022500089411A0049424907D2080A43904600239F
:102260007AE54946009F4D004D458941BC464942AB
:102270006144A946023A6418AEE70122524246E799
:102280009945EED30A00AAE70021E5E759075B026A
:102290001C0BE1E7FF030000FFFFFFFEFE0700004D
:1022A000FF0700001E04000002FCFFFF3E040000C8
:1022B000F0B55746DE464E464546E0B50D000400F3
:1022C000E80F83460903D80F090B824619488C464C
:1022D0001F0369005E00490D3F0B760D814218D047
:1022E00086420FD00120B1420DD1BC450BD19442A2
:1022F00009D1D3451CD0002905D160462043431E97
:10230000984100E00120F0BCBB46B246A946A04679
:10231000F0BD01208E42F6D1614639430F001743CC
:102320002743F0D15B465246981A431E9841EAE78C
:102330000020E8E7FF070000F0B557464E46454647
:10234000DE46E0B50D000E034900490D8A46DF0F59
:10235000E90FBC4683B02F4F04008046019158001E
:1023600019039146360B090B400DBA451DD0B842F2
:102370000DD05746002F2AD13443002824D10A43D8
:1023800036D0002C41D163465800013815E0114386
:1023900038D15346002B01D12643F4D0019B63452D
:1023A00007D1019B5800013807E026432AD1504548
:1023B00021D00120019B5F42384303B0F0BCBB46F3
:1023C000B246A946A046F0BD002CDCD0E6E70028C6
:1023D000EFD0019B6345ECD18245EADCE1DB8E4224
:1023E000E7D8DED1C845E4D80020C845E5D2D8E713
:1023F000002CE2D0DDE7114304D1019B6345D8D125
:102400000020DAE702204042D7E7019B6345E6D08F
:10241000CFE7C046FF070000F0B557464E46454699
:10242000DE46E0B50D000E034900490D8A46DF0F78
:10243000E90FBC4683B02E4F04008046019158003E
:1024400019039146360B090B400DBA451ED0B84210
:102450000DD05746002F27D13443002833D10A43EB
:1024600034D0002C40D163465800013815E01143A8
:1024700012D15346002B01D12643F4D0019B634572
:102480001DD00120019B5F42384306E0264303D163
:102490005045F6D111431CD0022003B0F0BCBB461E
:1024A000B246A946A046F0BD0028EAD0019B63458C
:1024B000E7D18245E5DC02DB8E42E2D80ED0019BFB
:1024C00058000138E9E7002CCDD0D7E7002CE4D044
:1024D000D7E7019B00206345DFD0D2E7C845D0D8BD
:1024E0000020C845D9D2EAE7019B6345E4D0C8E79C
:1024F000FF070000F0B557464E46DE464546E0B5BC
:102500001F000B031B0B16009A46CA0F4B0004005A
:10251000914685B05B0D00D1CFE1CD4A934255D0B5
:102520005146420FC9000A43802109041143C200E9
:102530009046C84A8A4693469B440023002502934E
:102540003C037B00FA0F0196240B5B0D009200D137
:1025500088E1BF4A934200D192E0BE4A9446634468
:102560009B440A2D42DCE400730F23438024494638
:1025700024041C43F3000193009B00205940CBB27C
:102580000393022D00DC94E00123AB401D00A62341
:102590002A00DB001A401D4200D029E290239B0054
:1025A0001D4200D14DE20023802499462403A84B0C
:1025B00010004A461B052343D2071343190005B0F8
:1025C000F0BCBB46B246A946A046F0BD5246024307
:1025D000904600D0ACE19B46022392460825029328
:1025E000AEE7009BA2469946019B9846029B022BB0
:1025F00000D1CAE1032B00D192E1012B10D10023BD
:1026000000240022D4E701227B083A4013435246BB
:10261000D2071343984653465B089A46039B994654
:102620005B46581C8023DB005B44002B00DCB1E1DF
:10263000424652070BD00F2241460A40042A06D0D8
:102640004246111D414592418846524292445246AB
:10265000D20106D55246804B1A4080239246DB00B9
:10266000C3187E4A934200DD8FE14246D1085246AC
:1026700052070A4351465B054C02240B5B0D97E75A
:10268000734B26439C46E344002E00D16FE10323A5
:1026900049461D43009B5940CBB203930A2D00DDF0
:1026A00033E10123AB401D000323029388222A4219
:1026B00097D1424643461204120C160001981D0C95
:1026C000030C0004000C4643B4461E006E43009603
:1026D000160007005E436146B0466F430E0CB844D7
:1026E0004644B74205D9802149028846009F4744A5
:1026F000009761460904090C370C36048C463100FA
:10270000614401911100260C2404240C61438C4681
:102710002100694389466146090C884672434A4450
:1027200042447543914503D9802149028846454476
:10273000110C884661460904090C8C461204624457
:10274000B91802915146090C8C4651460F043F0CB2
:102750003900414345448846614641438A464146E3
:102760006046090C894658437B4353444B449A4581
:1027700003D98021490289464844190C89464146BB
:102780000904090C8846390061431B044344884608
:1027900061464C4371438C46414677430E0C3F19CA
:1027A000F6194844B44203D9802149028946CC44F1
:1027B0000299009F894631044F4489464146974219
:1027C00092410C04240C4C44FF1852426419A11885
:1027D0009F429B41884682465B4299469045924182
:1027E000AC42A441C244D14452426442144399458C
:1027F0009B41824592415B42524213434A46360C0A
:10280000A419E31863445B02D20D1A43019992465E
:102810007A020A43501E8241FF0D17434A46520274
:102820001743B846DB0100D5EDE60D4B039A5B4438
:102830009146002B00DCACE03A00520700D110E7D3
:102840000F2258463A40042A00D0F9E609E7C0466C
:10285000FF07000001FCFFFFFFFFFFFEFE07000077
:10286000FF030000220032436FD0002C00D1C2E0F1
:10287000200000F0A9FE020003000B3A1D20821A7E
:1028800030001900D04008398C4002002243340047
:102890008C405946CB1A86498B469B440A2D00DD55
:1028A000A4E64946009B01945940CBB21400002095
:1028B0000393022D00DD67E6FBE65346034398468B
:1028C0003CD05346002B00D1A3E0504600F07CFEE4
:1028D0000B235B429C460200844411005046083999
:1028E00088401D23804660461B1A2000D840030004
:1028F000404603439A4623008B4098466C4B002584
:102900009B1A9B46002302931AE60F2D00D0C9E0C4
:10291000802352461B031A4202D01C4200D192E08F
:102920008024534624031C4324034246240B3EE6E2
:102930009B46032380460C25029301E600239A461A
:102940009B46013304250293FAE501210D430A2D2C
:1029500000DD4BE6494600984140C9B20391022D83
:1029600000DC96E000230024012001930CE6494698
:102970000223009A2B435140CAB203920A2B00DD76
:1029800034E6002D57D1039B994600240022494B81
:102990000EE658460121C91A382900DD2FE61F2905
:1029A00056DD1F2254465242D31ADC40202907D05C
:1029B000414B42469C465346604483401A439046EE
:1029C00042460721531E9A410B0022431340002424
:1029D000114209D00F231340042B5DD0111D9142E9
:1029E0009B410A005B425B07D2081A430023DFE5E4
:1029F000039B9946FAE5019800F0E6FD020003000A
:102A0000153220331C2A00DC38E7019A083882404E
:102A10003FE700F0D9FD15239C468444020063463D
:102A200020321C2B00DC58E700239846230008388E
:102A300083409A4662E71D00002300240220019390
:102A4000A2E5029032E61C43009B019A9946AEE54E
:102A50001A4B5246C31840469A40C840024340466B
:102A600098400300581E834154461A43CC405307F4
:102A700009D00F231340042B05D0131D934292411C
:102A80005242A4181A00230208D501230024002270
:102A90008EE5894600248BE50023A5E763076402E1
:102AA000240BA1E7009BA2469946019B984637E775
:102AB0000DFCFFFFFF0700003E0400001E040000A5
:102AC000F0B557464E464546DE46E0B583B0009029
:102AD00001910C034D00CE0F610A009C5F00640F52
:102AE0000C43009900920193C80019037B0D99468D
:102AF000019BCC4FDB0F9C464B0A00998046490F47
:102B00001943009B8B46DA0092466D0DB94500D102
:102B1000BFE00123614659404B468C46EB1A8E427A
:102B200075D0002B00DCA3E24946002900D1CEE09D
:102B3000BD4200D100E20127382B19DC802759461D
:102B40003F0439438B461F2B00DDFAE12027F91A99
:102B50008C4659466746B9400F001100D9400F43D3
:102B600061468A40511E8A415946D9401743641A2A
:102B7000C71BB84280414042241A230200D440E1DE
:102B80006402640A002C00D154E1200000F01CFD16
:102B90000300083B20213800CA1AD0409C400200A4
:102BA0009F4022439D4200DDA6E1581B0130091AD7
:102BB0003C008F40C4407B1E9F4113008B40274345
:102BC0001F43C2403B0014000025134300D1F7E12E
:102BD0007B0700D177E30F2338003B40042B04D060
:102BE000381DB842BF417F42E419230200D468E394
:102BF0008C4B01359D4200D1F4E08B4B6D051C40A0
:102C00006D0D6707C00864020743240BECE0002B3E
:102C100000DC29E34946002900D0D6E0594611439B
:102C200000D12EE1591E012B00D1E6E1BB4200D1BB
:102C300082E101270B00382914DC1F2B00DD3CE268
:102C40002027F91A8C4659466746B9400F001100F3
:102C5000D9400F4361468A40511E8A415946D940A6
:102C6000174364183F1887428041404224182302CA
:102C700000D4C6E06B4B01359D4200D1B2E001218A
:102C8000694B7A081C4039400A43E7071743640838
:102C90009EE7664B11438A46EB18002928D066450B
:102CA0002CD0002B5BD0002D00D12CE15B4666467A
:102CB0005F07D2081743DD083B002B4300D1E2E059
:102CC000802424032C432403564D240B8CE05946C6
:102CD000114300D1D5E0591E012B00D1B9E1BB420F
:102CE00000D1B1E101270B00382900DD40E72AE7D8
:102CF0006146012779408C466645D2D1002B00D130
:102D0000C5E0002D00D055E14B462500054300D11C
:102D100012E2591E8C46012B00D149E2414DAB42D3
:102D200000D18FE20127382911DC63461F2B00DD1B
:102D30005BE26146202327005B1A050098409F4014
:102D4000CD40431E9841CC402F430743A344BF18B6
:102D50009742924152425A4414004D4687E7344FFD
:102D60006B1C3B4200D0B6E05946230011430F00D4
:102D70000343002D00D026E1002B00D1C0E1002943
:102D800000D1A1E0831A98465B464045AD41E31A65
:102D90006D425B1B80252D042B4200D14BE15B462D
:102DA000101A824292411C1B0700012663465242C0
:102DB000A41A27431E40002F00D142E12C4200D12B
:102DC0006DE2194B01251C401BE7BD4200D13BE1E0
:102DD0000127382B00DD45E7802759463F0439435A
:102DE0008B462AE7002400272D052543F6073543A7
:102DF0003800290003B0F0BCBB46B246A946A04645
:102E0000F0BD7B0704D00F233B40042B00D0E7E646
:102E10002B00F808034A67070743E508934200D1EF
:102E20004AE7A5E0FF070000FFFF7FFF01F8FFFF73
:102E3000FE070000380000F0C7FB030018331F2B0B
:102E400000DCA7E63A00083882409D4200DD8AE0B7
:102E50005B1B581C1F2800DCD8E117001F3BDF401C
:102E6000202805D040231B1A9A40531E9A4117432D
:102E70000025002F00D1E5E07B0700D0ABE62C0059
:102E8000C6E7C008C6E700270024D14DACE7D14F04
:102E90006B1C3B4271D123000343002D00D04EE157
:102EA0005746002B00D1B5E1002F0DD08318834287
:102EB00080415C4440422418220200D5C8E11F0032
:102EC0009846274300D1BCE043466707DB081F4311
:102ED000E50800234CE0831A98465B464045BF4115
:102EE000E31A7F42DB1B1F027CD447461F4300D1FD
:102EF000A6E01C00474645E6B74CED1A14407B0798
:102F000000D080E784E74B462500054366D05F1E6E
:102F1000012B00D1FCE0AE4DAB4200D15EE1664634
:102F2000382F00DCB4E00120171ABA4292415B4608
:102F300052424D469C1A20E66707C0080743E50841
:102F4000BAE61F005946203FF9400F00202B05D05C
:102F50004021CB1A594699400A43924653465A1E7D
:102F600093411F4304E6EB1A9B4D15406F07ED0894
:102F70002C035D05240B6D0D36E7954DAB4200D15A
:102F8000D6E082182100824280415944404208180C
:102F9000C707520817434408520700D485E10F229F
:102FA0001D003A40042A00D01AE6FF0864072743B0
:102FB0000509DDE75B46D2085F071743DD087BE6BE
:102FC0000027002410E7002B00D0D6E0002900D015
:102FD0002FE1802400267E4D240305E766465C46EB
:102FE000D00817E75B46171ABA4292411C1B01260C
:102FF00063465242A41A1E40C4E5831883428041AE
:103000005C44404225182A0200D4DAE0724A5B0888
:103010001540EA071A4369085B0700D44AE10F2309
:103020001340042B00D1FCE0171D9742A4416442D9
:1030300002256418ECE647461C001F4300D043E716
:10304000002600250024CFE6C00867070743E508EF
:1030500032E6871A5B46B8428041E41A4042241A9D
:10306000230228D46307FF081F43E50801237FE7F5
:10307000002B00D173E64B465F1B3B00002D00D1B7
:1030800042E7382F00DDECE080230E001B041C43D8
:103090001F2F25DC20252300ED1B0100A840AB409D
:1030A000F940451EA8410B43FC4018435B461B1BDF
:1030B0009B4639E76646012562E51F005946203FD9
:1030C000F9408C46202B05D040275946FB1A9940E1
:1030D0000A43924657467B1E9F4163461F43C1E504
:1030E0003B002500203BDD40202F04D04023DB1B8C
:1030F0009C40204380464046431E9841284313E7A6
:1031000000299DD0012663465C4690461E40DBE6C2
:10311000171A5B46BA4292411C1B5242A41A230260
:10312000C8D46307FF081F4366460123E5081FE76D
:103130001D000024002757E65C46D0086AE6002BF5
:1031400000D137E75346C00867070743E508002B5F
:1031500000D1B1E580231B031D4208D05946C808A1
:10316000184204D1D20849070A43170005007B0F13
:10317000FF00FF085B071F439EE5C0086307184375
:10318000E508002953D080231B031D420AD059466D
:10319000CC081C4206D1012663462500D008490709
:1031A00008431E40470FC000C0087F07074383E560
:1031B0008318934292415C445242A5182A0200D5DA
:1031C00024E76F07DB081F43ED080123D0E6C04664
:1031D000FF070000FE070000FFFF7FFF5B46D208ED
:1031E0005F0766461743DD0866E52500203BDD40A6
:1031F0006346202B05D0402361465B1A9C40204348
:10320000804647467B1E9F412F43A0E52021002793
:10321000091AD2E4002F00D113E75C4617000025FD
:10322000F6E5D708490702230F432D09A0E607005A
:1032300042E55B4601265F07DD086346D208174377
:103240001E4039E55B46D2085F071743DD0833E5CA
:103250001E4ADB0822405707520201251F43140B68
:10326000C2E50E0001205FE6002B0DD04B465B1B34
:103270009C46002D00D148E50127382B00DD66E58E
:1032800080231B041C4350E56B1C114D2B4200D0C6
:1032900073E65946230011438A46034300E6670755
:1032A000C00800230743E50862E66407FF082743D8
:1032B00005095DE6D208490711430F0002232D09D5
:1032C00056E60700A4E538008FE4C046FFFF7FFF05
:1032D000FE070000F0B5C6461E03360BB0460D4E85
:1032E0000C034D005F0000B5240B6D0D7F0DB54242
:1032F0000BD0084900208F4204D1464616433000C7
:10330000431E984180BCB846F0BD04430120002C08
:10331000F8D1EEE7FF0700000B00020070B5164D74
:103320000C0382B04900002000920193240B490D48
:10333000DE0FA94204DD1148814203DD104BF01875
:1033400002B070BD8020400320430E4C641A1F2C35
:1033500008DD0D4B5B1AD84003005842002EEFD118
:103360001800EDE7094B009A9C46030061448B402E
:10337000E2401343F1E7C046FE0300001D040000D5
:10338000FFFFFF7F3304000013040000EDFBFFFF8D
:1033900070B5002816D0C317C5185D40C40F2800AB
:1033A00000F012F9104B1B1A5B055B0D0A2814DCA8
:1033B00002002E00153296400B22121AD5402D0322
:1033C0002D0B03E000240023002500261B052B43C2
:1033D000E40723433000190070BD0B3885402D03EE
:1033E00000262D0BF2E7C0461E04000010B5041E97
:1033F00010D000F0E9F80E4B1B1A5B055B0D0A2894
:103400000FDC0B222100121AD14015300A03844030
:10341000120B01E0002300221B05134320001900BA
:1034200010BD22000B38824012030024120BF3E778
:103430001E04000070B542024300C40FFE201B0EA4
:10344000591C550A08420CD0E02189008C466D07B2
:10345000120B63441B051343E407234328001900A0
:1034600070BD002B14D1002D1BD0280000F0ACF84B
:103470000A281CDC0B232A001B1ADA400300153330
:103480009D400E4B12031B1A5B05120B5B0DE1E70F
:10349000002D09D0130B802212031A436D07084B2D
:1034A000D8E700230022D5E70022054BD2E703002E
:1034B0002A000B3B9A400025E3E7C0468903000041
:1034C000FF070000F0B54B000F035B0D3A4C450FB2
:1034D00083B07F0A5E1C2F4300900191CA0FC50084
:1034E00026420BD035495C18FE2C13DDFF2000234B
:1034F000C0051843D207104303B0F0BD3D43002B75
:1035000001D10020F4E7002DF0D08023DB03FF2061
:103510003B43EDE7002C0CDD009BFF009B01581E98
:103520008341690F3B430B43590727D1DB08E0B2C6
:10353000DEE72100173131DB80211E2009043943E9
:10354000001B1F282DDD02267642341B0E00E640AC
:103550003400202804D01A488446634499400D431F
:103560002B00591E8B412343590703D00F211940CB
:1035700004290BD19B0100205B0AB9E70F211940F8
:10358000042904D19B015B0AE0B2B1E700240433B3
:103590005901F7D501340023E0B2A9E70020002348
:1035A000A6E7084C1C192B00A540C340A140681E8B
:1035B000854129430B43D7E7FE07000080FCFFFF4E
:1035C000A2FCFFFF82FCFFFF1C2101231B04984289
:1035D00001D3000C10391B0A984201D3000A0839A4
:1035E0001B09984201D30009043902A2105C40185B
:1035F0007047C046040302020101010100000000FF
:103600000000000010B5002903D1FFF7DDFF2030D6
:1036100002E00800FFF7D8FF10BDC04680B500AF3C
:10362000BFF34F8FC046044B044ADA60BFF34F8F9D
:10363000C046C046FDE7C04600ED00E00400FA05C4
:1036400080B500AF00F010F800F042F800F0ACF8E0
:1036500000F03AF900F04CFA00F0BCFB00F04CFC32
:10366000C046BD4680BD000080B582B000AFFB1DE6
:1036700000221A70BB1D01221A7019E0BB1D1B78B5
:103680009BB2013398B2BB1D1B78013B5A000E4B15
:10369000D31819000FF027FABB1D1B78192B02D97C
:1036A000FB1D0A221A70BB1D1A78BB1D01321A704D
:1036B000064B1B78BA1D12789A42DFD9FB1D1B7886
:1036C0001800BD4602B080BD1018002098000020F0
:1036D00090B583B000AFFB1C00221A70BB1D002206
:1036E0001A803B0000221A807B1D00221A704BE0DA
:1036F0003B1D01221A7033E0BB1D1B881C339BB29B
:103700003A00110018000FF0EEF93B0018887B1DFD
:103710001A783B1D1978C4B2214813009B009B18EE
:103720005B00C318221C5A543B001B881B0A98B22A
:103730007B1D1A783B1D1B78591EC4B21848130014
:103740009B009B185B00C318221C5A54BB1D1A888F
:10375000BB1D01321A803B1D3A1D127802321A70CD
:103760003B1D1B78092BC7D97B1D1A780C49130008
:103770009B009B185B00CB18093300221A707B1D3D
:103780001A787B1D01321A70064B1B787A1D12784D
:103790009A42ADD9FB1C1B781800BD4603B090BD02
:1037A000E81700209800002090B583B000AFFB1C04
:1037B00000221A70BB1D00221A803B0000221A80D2
:1037C0007B1D00221A707B1D00221A7015E0BB1DA4
:1037D0001B88CB3398B27B1D1B785A00374BD3180C
:1037E00019000FF080F9BB1D1A88BB1D01321A8029
:1037F0007B1D1A787B1D01321A70314B1B787A1DA4
:1038000012789A42E3D37B1D00221A704BE03B1DD5
:1038100001221A7033E0BB1D1B8899339BB23A001A
:10382000110018000FF05FF93B0018887B1D1A7813
:103830003B1D1978C4B2234813009B009B185B0002
:10384000C318221C5A543B001B881B0A98B27B1DCC
:103850001A783B1D1B78591EC4B21A4813009B00EE
:103860009B185B00C318221C5A54BB1D1A88BB1D31
:1038700001321A803B1D3A1D127802321A703B1D2C
:103880001B78092BC7D97B1D1A780E4913009B00A2
:103890009B185B00CB18093300221A707B1D1A7825
:1038A0007B1D01321A707B1D1B78092BAFD9FB1CC5
:1038B0001B781800BD4603B090BDC0460C18002010
:1038C00098000020EC0A0020B0B588B002AF0B23AE
:1038D000FB1800221A703B1D00221A80BB1C00221C
:1038E0001A8008243B1900221A80BB1D00221A806E
:1038F00017257B1900221A7000233B610023FB600F
:103900003B1D1900E4200FF0EEF803001A003B19EC
:103910001A803B191B88002B03D13B1D1A887B1989
:103920001A703B1D1900E5200FF0DDF803001A00A6
:1039300008243B191A80BB1C1900E6200FF0D3F8AD
:1039400003001A00BB1D1A803B191B88002B0AD1EB
:10395000BB1D1B88002B06D13B1D1B881B04BA1CFA
:1039600012889B183B613B1D1900E7200FF0BBF844
:1039700003001A0008243B191A80BB1C1900E82018
:103980000FF0B1F803001A00BB1D1A803B191B8809
:10399000002B0AD1BB1D1B88002B06D13B1D1B88A9
:1039A0001B04BA1C12889B18FB603B1D1900E92000
:1039B0000FF099F803001A0008217B181A807B1871
:1039C0001B88002B0BD13B1D1B881B0A9BB2DAB254
:1039D000414B1A703B1D1B88DAB2404B1A703B1DDD
:1039E0001900EA200FF07FF803001A0008217B1865
:1039F0001A807B181B88002B0BD13B1D1B881B0AD0
:103A00009BB2DAB2364B1A703B1D1B88DAB2354BCB
:103A10001A703B1D1900EB200FF065F803001A0027
:103A200008217B181A807B181B88002B0BD13B1DAB
:103A30001B881B0A9BB2DAB22B4B1A703B1D1B88EA
:103A4000DAB22A4B1A70244B1B78002B11D0234B6F
:103A50001B78002B0DD0204B1D78204B1B78FC6869
:103A600039691722BA18107800932B00220006F04B
:103A7000B3FC1B4B1B78002B11D01A4B1B78002B6F
:103A80000DD0174B1D78174B1B78FC68396917222E
:103A9000BA18107800932B00220006F09DFC124B00
:103AA0001B78002B11D0114B1B78002B0DD00E4B27
:103AB0001D780E4B1B78FC6839691722BA181078EC
:103AC00000932B00220006F087FC0B23FB181B78C9
:103AD0001800BD4606B0B0BD3718002038180020C9
:103AE000391800203A1800203B1800203C1800200C
:103AF000B0B584B000AF0F23FB1800221A70082461
:103B00003A198A235B00110018000EF0ECFF030045
:103B10001A000C217B181A807B181B88002B24D1DB
:103B20003B191B881A1C03231340DAB2A44B032150
:103B30000A4050011A7860218A43111C021C0A4372
:103B40001A703B191B881B0A9BB21A1C01231340D5
:103B5000DAB29B4B01210A4090001A7804218A4373
:103B6000111C021C0A431A701FE0964B1B785B065F
:103B70009B0FDAB2924B03210A4050011A78602160
:103B80008A43111C021C0A431A708E4B1B785B0778
:103B9000DB0FDAB28A4B01210A4090001A78042127
:103BA0008A43111C021C0A431A7008243A198E23F6
:103BB0005B00110018000EF096FF03001A000C21A4
:103BC0007B181A807B181B88002B11D13B191B888E
:103BD0001BB29BB2DB0BDAB2794B01210A40D00059
:103BE0001A7808218A43111C021C0A431A700FE03C
:103BF000744B1B781B07DB0FDAB2714B01210A40B3
:103C0000D0001A7808218A43111C021C0A431A703A
:103C100008243A191623FF33110018000EF063FF31
:103C200003001A000C217B181A807B181B88002BBC
:103C300004D13B191A88644B1A8003E0634B1A883D
:103C4000614B1A8008243A198B235B00110018007D
:103C50000EF049FF03001A000C217B181A807B1814
:103C60001B88002B04D13B191A88574B5A8003E05C
:103C7000564B5A88544B5A8008243A191823FF335C
:103C8000110018000EF02FFF03001A000C217B1802
:103C90001A807B181B88002B0CD13B191B88DAB2C9
:103CA000494B1A713B191B881B0A9BB2DAB2464B6F
:103CB0005A7107E0454B1A79434B1A71434B5A79B5
:103CC000414B5A7108243A198C235B0011001800EB
:103CD0000EF009FF03001A000C257B191A80BA1D8B
:103CE0001A23FF33110018000EF0FDFE03001A0026
:103CF0000A217B181A807B191B88002B0DD17B1899
:103D00001B88002B09D13B191B881A00BB1D1B887F
:103D10001B041A432C4B9A600CE02D4B1B78002B94
:103D200004D0294BE12252029A6003E0274B9A68A3
:103D3000254B9A6008243A198D235B001100180066
:103D40000EF0D1FE03001A000C217B181A807B189C
:103D50001B88002B0CD13B191B88DAB21A4B1A7343
:103D60003B191B881B0A9BB2DAB2174B5A7305E04A
:103D7000154B18225A73144B00221A7308243A194F
:103D80001C23FF33110018000EF0ADFE03001A00D3
:103D90000C217B181A807B181B88002B05D13B193E
:103DA0001B88DAB2084B9A7603E0084B9A7E064BE2
:103DB0009A760F23FB181B781800BD4604B0B0BDDF
:103DC0003018002034180020141800209C00002017
:103DD0003618002080B582B000AFBB1D00221A70DB
:103DE0003B0000221A803B1D00221A80FB1C00228F
:103DF0001A70FB1D00221A7071E0FB1D1B783B330B
:103E00009BB29B009BB23A00110018000EF06BFEB3
:103E100003001A003B1D1A803B1D1B88002B59D143
:103E20003B001B881B0A9AB2FB1C1A70FB1C1B78F8
:103E30001B09DBB21A00FB1D1B7801339A4249D1E2
:103E4000FB1C1B780F22134044D0FB1D1B785A1C0F
:103E5000FB1C1B780F210B40D8B2264913005B00D6
:103E60009B18CB180133021C1A703B001988FB1DEC
:103E70001B785A1CC8B21F4913005B009B18CB1853
:103E80000233021C1A70FB1D1B785A1C19491300BF
:103E90005B009B18CB1801331A78FB1D1B7801338C
:103EA000DBB2190010000FF0F3FBFB1D1B78013390
:103EB000D8B2FB1D1B785A1C0E4913005B009B18DF
:103EC000CB1802331B7801221340DBB20022190009
:103ED0000FF0E0FDFB1D1A78FB1D01321A70FB1D6F
:103EE0001B78052B89D9BB1D1B781800BD4602B075
:103EF00080BDC046382F002090B585B000AF0F239D
:103F0000FB1800221A706F4BBB60322020F0FAFBC6
:103F100003003B603B68002B01D1FB23CEE0BB6874
:103F20001B78FE2B01D0FF23C8E0FB1D00221A7076
:103F3000B8E00F23FB1800221A7010E0BB685A1C6F
:103F4000BA6019000F203B181B783A68D3180A781A
:103F5000D2B21A703B181A783B1801321A700F242B
:103F60003B191B78132BE9D9FB1D1A7813009B0012
:103F70009B189B00544A98183B680133142219007F
:103F800022F0DFF83B6814220021180021F0BAFF6C
:103F90003B1900221A70BB681433BB600FE0BA688B
:103FA0000F203B181B783968CB1812781A70BB6841
:103FB0000133BB603B183A18127801321A70BB68A3
:103FC0001B78FE2B08D0BB681B78FF2B04D00F2377
:103FD000FB181B78312BE2D90F217B181B78013B92
:103FE0003A68D3181B78002B04D07B187A18127803
:103FF00001321A700F23FB181A78FB1D1C78100071
:1040000020F080FB030019002F4A23009B001B199E
:104010009B00D3180C331960FB1D1A782A49130032
:104020009B009B189B00CB180C331B68002B12D1F4
:10403000FB1D1A7813009B009B189B00224A9B18BB
:1040400014220021180021F05DFF3B68180020F0C9
:1040500063FB0E2332E0FB1D1A781B4913009B0003
:104060009B189B00CB180C3318680F243B191A7847
:104070003B68190022F065F8144B1B780133DAB263
:10408000124B1A703B191A783B680021180021F076
:1040900039FFBB681B78FE2B0AD1FB1D1A78FB1D6C
:1040A00001321A70FB1D1B78042B00D841E700E099
:1040B000C0463B68180020F02FFB00231800BD46C7
:1040C00005B090BD00B00708C41800208D0B00207B
:1040D00080B582B000AFFB1D00221A70BB1D01220B
:1040E0001A7021E0BB1D1B785A1E154B5200D35A83
:1040F000002B0DD0BB1D1B789BB2013398B2BB1DAA
:104100001B785A1E0E4B5200D35A19000EF00CFDAC
:10411000BB1D1B78192B02D9FB1D0A221A70BB1D6F
:104120001A78BB1D01321A70064B1B78BA1D127823
:104130009A42D7D9FB1D1B781800BD4602B080BD3E
:10414000101800209800002090B583B000AFFB1C31
:1041500000221A70BB1D00221A803B0000221A8028
:104160007B1D00221A7047E07B1D1A782849130036
:104170009B009B185B005B5C002B38D03B1D012231
:104180001A7030E07B1D1A783B1D1B78591E2048A1
:1041900013009B009B185B00C3185B5C1B0299B269
:1041A0007B1D1A783B1D1878194C13009B009B1837
:1041B0005B00E3181B5C1A003B008A181A80BB1DC9
:1041C0001B881C339AB23B001B88190010000EF0AC
:1041D000ABFCBB1D1A88BB1D01321A803B1D3A1D6A
:1041E000127802321A703B1D1B78092BCAD97B1D2D
:1041F0001A787B1D01321A70064B1B787A1D1278D3
:104200009A42B1D9FB1C1B781800BD4603B090BD83
:10421000E817002098000020F0B587B000AFB96023
:104220007A6019000F243B19021C1A700E257B19A5
:104230000A1C1A701726BB1900221A703B191B782A
:104240009BB21900E4200EF06FFCBB681B0A9BB206
:104250001900E5200EF068FCBB689BB21900E6204F
:104260000EF062FC7B681B0A9BB21900E7200EF07F
:104270005BFC7B689BB21900E8200EF055FC7B19B3
:104280001B789BB21B029AB2202310241B19DB1946
:104290001B789BB2D3189BB21900E9200EF044FCA6
:1042A00024231B19DB191B789BB21B029AB228230B
:1042B0001B19DB191B789BB2D3189BB21900EA209B
:1042C0000EF032FC2C231B19DB191B789BB21B024E
:1042D0009AB230231B19DB191B789BB2D3189BB2FF
:1042E0001900EB200EF020FCBB191B781800BD460E
:1042F00007B0F0BD80B582B000AFFB1D00221A7080
:10430000294B1A881623FF33110018000EF00CFCFD
:10431000254B5A888B235B00110018000EF004FC1B
:10432000214B5B791BB21B021AB21F4B1B7B1BB2CA
:1043300013431BB29AB21823FF33110018000EF07A
:10434000F3FB194B9B689AB28C235B001100180099
:104350000EF0EAFB144B9B681B0C9AB21A23FF3336
:10436000110018000EF0E0FB0F4B5B7B1BB21B0231
:104370001AB20D4B1B791BB213431BB29AB28D2399
:104380005B00110018000EF0CFFB074B9B7E1A005C
:104390001C23FF33110018000EF0C6FBFB1D1B7819
:1043A0001800BD4602B080BD1418002080B582B050
:1043B00000AFFB1D00221A701B4B042200211800C5
:1043C00021F0A0FDBB1D01221A7021E0BB1D1B784E
:1043D0005A1E154B5200D35A002B0DD0BB1D1B7813
:1043E0009BB2013398B2BB1D1B785A1E0E4B520074
:1043F000D35A19000EF098FBBB1D1B78192B02D95C
:10440000FB1D0A221A70BB1D1A78BB1D01321A70DF
:10441000064B1B78BA1D12789A42D7D9FB1D1B7820
:104420001800BD4602B080BD101800209800002082
:10443000B0B58EB002AF1423F8180A257A191823E4
:10444000F9180823FB180093030001200EF0EAFC82
:104450000C23F818BA1D1023F9183B1D0093030014
:1044600002200EF0DFFC1C217B1801225A607B1811
:1044700000229A607B191B881A007B181A60BB699E
:104480001A000C007B18190010001AF061FE2100C0
:104490007B1800225A607B1802229A603B1D1B8801
:1044A0001A007B181A60FB681A007B1819001000AC
:1044B0001AF04EFEBB6918007B191B8800221900F8
:1044C0001AF0CFFF052010F00FFFFB681A003B1D0C
:1044D0001B88190010001AF0A7FF031E17D1BB6933
:1044E00018007B191B88012219001AF0BAFF052059
:1044F00010F0FAFEFB681A003B1D1B881900100023
:104500001AF092FF0300012B01D1012300E00023E8
:104510001800BD460CB0B0BD90B585B000AF786056
:104520000F23FB1800221A701CE00F243B191A7885
:10453000114913005B009B189B00CB1808331A68C5
:104540007B6811001800FBF7DFFD031E04D13B1947
:104550001B780133DBB20BE00F217B181A787B1834
:1045600001321A700F23FB181B78002BDDD00023BB
:104570001800BD4605B090BDAC2D002080B584B0BC
:1045800000AF78600F23FB1800221A7041E0264A22
:104590007B6811001800FBF7B7FD031E01D1012352
:1045A0003DE0224A7B6811001800FBF7ADFD031EB9
:1045B00001D1022333E01E4A7B6811001800FBF78B
:1045C000A3FD031E01D1032329E01A4A7B681100D1
:1045D0001800FBF799FD031E01D104231FE0164AC2
:1045E0007B6811001800FBF78FFD031E01D1052326
:1045F00015E0124A7B6811001800FBF785FD031EC9
:1046000001D106230BE00F217B181A787B180132A9
:104610001A700F23FB181B78052BB8D9002318003C
:10462000BD4604B080BDC04638B002083CB00208A8
:1046300040B0020844B0020848B002084CB002087A
:1046400090B583B000AFFB1D01221A7020E05A4BD9
:104650001B78FA1D12789A4206D1FB1D1B78013B8C
:10466000564A0021D1540EE0534B1A78FB1D1B789B
:104670005C1EFB1D1B781900100000F087FA030078
:104680001A004E4B1A55FB1D1A78FB1D01321A7089
:10469000FB1D1B78022BDAD910F0A4F810F09EFA5B
:1046A0000EF0F6F90EF0ACFA0DF0B2FE10F082FD4D
:1046B0000EF0F8F810F0B8FD0EF006FB031E03D064
:1046C0000EF088FAFEF7AAFFFFF7B2FE031E21D014
:1046D0003B4B01221A70322010F006FE0BF0ACFDAD
:1046E000384BE12252029A60BB1D01221A700CE085
:1046F000344B9A68BB1D1B781100180011F092FA18
:10470000BB1D1A78BB1D01321A70BB1D1B78052B0F
:10471000EED904E0322010F0E7FD0BF08DFDFEF73E
:104720008FFF0DF0AFFE244B1B78002B13D180239D
:104730001B022548012219001AF093FEFA235B00A0
:10474000180010F0D1FD80231B021F480022190021
:104750001AF087FE26E080231B021B480122190065
:104760001AF07FFEFA235B00180010F0BDFD8023D5
:104770001B021548002219001AF073FE642010F085
:10478000B3FD80231B021048012219001AF069FEB4
:10479000642010F0A9FD80231B020B4800221900A1
:1047A0001AF05FFE05F002FC084B01221A70C046A9
:1047B000BD4603B090BDC04699000020DC17002024
:1047C0003618002014180020000400508B0B002025
:1047D00080B500AF18F0E8FA0BF03AF9FFF730FFB8
:1047E00005F008FC15F01CF8C046BD4680BD000071
:1047F000F0B58DB000AF1F23F918087069460E00A0
:1048000013211823CB18D919002008701721182359
:10481000CB18D9190020087016211823CB18D919E4
:104820000020087015201823C318D919002008701B
:1048300014201823C318D91900200870D04909780A
:104840000800013878623961002078613A697B6933
:104850001000400F3A617B61DD0005433B69DC00DD
:104860003960002078603C687D682300580F2B0079
:10487000DB00FB60FB680343FB602300DB00BB60E5
:104880000B000733DB08DB006A46D31A9D466B46F4
:1048900000333B6216211823CB18DB1900221A7053
:1048A00018E016201823C318DB191B783A6A002178
:1048B000D1541823C318DB191A78B24B52000021C7
:1048C000D1521823C318DB191A781823C318DB191F
:1048D00001321A70AA4B1B78162218215218D219CD
:1048E00012789A42DDD315211823CB18DB19182230
:1048F0008A18D219127801321A701F23FB181B78FC
:10490000013B3A6A080018240919C9190978D154D9
:104910001823C318DB1918228218D2191278013211
:104920001A70172318229B18DB1901221A7050E005
:104930001F23FB181B785A1E17241823E318DB19B2
:10494000187891491300DB009B1A1B185B005B5A17
:10495000002B34D01F23FB181B785A1E894B5200A2
:10496000D35A1AB220001823C318DB191B78013B55
:10497000012199400B001BB2134319B21F23FB18EE
:104980001B785A1E89B27F4B5200D1521F23FB184D
:104990001B785A1E1823C318DB1918787A4913009C
:1049A000DB009B1A1B185B005B5ADB089BB2013BC8
:1049B0003A6A152118200918C9190978D154172104
:1049C0001823CB18DB191A781823CB18DB190132FE
:1049D0001A70172318229B18DB191B78062BA7D9EE
:1049E000142318229B18DB1900221A701522182391
:1049F000D318DB1918215218D219127801321A7003
:104A0000162318229B18DB1900221A709BE016232C
:104A100018229B18DB191B783A6AD35C1A001523FD
:104A200018215B18DB191B78013B9A4200D080E00B
:104A3000172318229B18DB1901221A7072E0162422
:104A40001823E318DB191A7817251823EB18DB193C
:104A500018784D491300DB009B1A1B185B005B5A4A
:104A6000002B55D01823E318DB191A781823EB18FC
:104A7000DB19187844491300DB009B1A1B185B00F4
:104A80005B5ADB089BB2013B3A6AD35C002B3FD1F7
:104A900020001823C318DB191A783A4B5200D35A56
:104AA0001AB22C001823E318DB191B78013B0121F3
:104AB00099400B001BB2134319B21823C318DB191A
:104AC0001A7889B22F4B5200D1521823C318DB1920
:104AD0001A781823E318DB1918782B491300DB0028
:104AE0009B1A1B185B005B5ADB089BB2013B3A6ABE
:104AF000152118200918C9190978D154142218232E
:104B0000D318DB1918215218D219127801321A70F1
:104B100017211823CB18DB191A781823CB18DB19A7
:104B200001321A70172318229B18DB191B78062BE9
:104B300085D916211823CB18DB191A781823CB181E
:104B4000DB1901321A700E4B1B78162218215218ED
:104B5000D21912789A4200D259E7142318229B18CE
:104B6000DB191B78002B00D03AE7132318229B187F
:104B7000DB191B78B5461800BD460DB0F0BDC04628
:104B8000980000201017002000000020B0B588B069
:104B900000AF0200FB1D1A70BB1D0A1C1A7008230F
:104BA000FB1800221A800B23FB1800221A701F2307
:104BB000FB1800221A700A23FB1800221A701E2309
:104BC000FB1800221A70994B02220021180021F0D4
:104BD00099F9FB1D1B78013B954A0021D154FB1D1F
:104BE0001B78013B934A0021D1540123BB612EE085
:104BF000FB1D1B785A1E90491300DB009B1ABA69F3
:104C00009B185B005B5A002B1ED0FB1D1B785A1EA5
:104C100089491300DB009B1ABA699B185B005B5A39
:104C2000DB089AB2BB1D1B789BB29A420CD1BB1D0C
:104C30001B78013B7E4A0121D1547C4BBA1D12786E
:104C40001A70BB69DBB2ECE0BB690133BB61BB69C5
:104C5000062BCDDD01237B6111E0FB1D1B787A69FA
:104C60009A4209D07B69013B714AFF21D1547B698B
:104C7000013B704A0021D1547B6901337B616F4B4A
:104C80001B781A007B699342E7DD73E008243A1928
:104C9000674B1100180000F0D3F803001A001F2121
:104CA0007B1801321A707A18BB1D12781B789A4251
:104CB00068D07B181B78013B3A190121D15413238A
:104CC000FB1801221A7050E01F243B191B785A1E52
:104CD00013257B19187858491300DB009B1A1B1801
:104CE0005B005B5A002B3AD03B191B785A1E7B198C
:104CF000187851491300DB009B1A1B185B005B5AA4
:104D0000DB089AB20A217B181A707B181B78013BCA
:104D10000822BA18D35C002B21D13B191B78013B28
:104D2000434AD25C0B203B1801321A707B181B7867
:104D3000013B3F4AD35C05003A1812789A420ED2E2
:104D400008007B181B78013B394A79190978D1543E
:104D50003B181B78013B374A39190978D154132184
:104D60007B181A787B1801321A701323FB181B78F2
:104D7000062BA9D90823FB18180000F0A5F8031E7C
:104D800084D000E0C04613E01E22BB181B78BA187E
:104D9000591C11701900254B1F203A1812785A54CB
:104DA00001007B181B785A1E7B1822498A5C1A70F6
:104DB0001F23FB181B78013B1E4AD35C002BE3D159
:104DC0000123FB6029E0FB1D1B785A1E1A491300C2
:104DD000DB009B1AFA689B185B005B5A002B19D00A
:104DE000FB1D1B785A1E14491300DB009B1AFA683E
:104DF0009B185B005B5ADB089BB2BA1D1278013A24
:104E00000B498A5C013A09498A5C934202D1FB68EA
:104E1000DBB206E0FB680133FB60FB68062BD2DDEA
:104E200000231800BD4608B0B0BDC0469820002041
:104E3000E0170020E4170020000000209800002068
:104E400080B584B000AF786039600F217B18FF22F5
:104E50001A700E23FB1800221A703B681B78002B77
:104E600003D17B187A6812781A700023BB601BE0AC
:104E7000BB687A68D3181B780F217A1812789A4287
:104E80000FD9BB683A68D3181B78002B09D1BB68CF
:104E90007A68D2187B1812781A700E23FB18BA6839
:104EA0001A70BB680133BB60064B1B781A00BB68E5
:104EB0009342DDDB0E23FB181B781800BD4604B0BF
:104EC00080BDC0469800002080B584B000AF7860F7
:104ED0000F23FB1801221A700023BB600CE0BB6893
:104EE0007A68D3181A780F217B18791809780A4044
:104EF0001A70BB680133BB60064B1B781A00BB6895
:104F00009342ECDB0F23FB181B781800BD4604B05E
:104F100080BDC04698000020F0B587B002AF020007
:104F2000FB1D1A70834A844B1100180020F06AFFA1
:104F3000814B1800FBF7F2F803009AB27E49FB1D83
:104F4000187801235B420093322310F0D5FD0F2324
:104F5000FB1801221A701BE00F243B191A787749BD
:104F6000754B180020F04EFF734B1800FBF7D6F876
:104F700003009AB27049FB1D187801235B4200932D
:104F8000322310F0B9FD3B191A783B1901321A701F
:104F90000F23FB181B78052BDED96949FB1D1878F8
:104FA00001235B4200933223032210F0A5FD0E2360
:104FB000FB1800221A70A7E00E243B191B785A1C1C
:104FC00060495D4B180020F01DFF5B4B1800FBF79C
:104FD000A5F803009AB25849FB1D187801235B42DB
:104FE0000093322310F088FD3B191A7856491300BC
:104FF000DB009B1A5B005B5A1A0013005B009B18D6
:105000005B00524A99184C4B0522180020F0AEFF65
:105010004949FB1D187801235B4200933223052286
:1050200010F06AFD4A49FB1D187801235B4200938A
:105030003223012210F060FD0D23FB1801221A70AB
:105040004DE00E23FB181A780D23FB1818783E4903
:105050001300DB009B1A1B185B005B5A002B06D168
:105060003C49354B0022180020F0CCFE22E00E25F2
:105070007B191A780D26BB19187833491300DB0009
:105080009B1A1B185B005B5ADB089BB21C007B1948
:105090001A78BB1918782C491300DB009B1A1B18CF
:1050A0005B005B5A1A00072313402B492248220059
:1050B00020F0A8FE204B1800FBF730F803009AB24E
:1050C0001D49FB1D187801235B420093322310F029
:1050D00013FD0D217B181A787B1801321A700D23ED
:1050E000FB181B78052BACD91C49FB1D1878012334
:1050F0005B4200933223022210F0FEFC0E217B184B
:105100001A787B1801321A70154B1B780E22BA18C8
:1051100012789A4200D24FE71249FB1D18780123FA
:105120005B4200933223012210F0E6FCC046BD46EC
:1051300005B0F0BD50B00208980A002064B0020823
:105140006CB0020870B002080000002050AA0208EB
:105150007CB0020880B0020884B002088CB002085B
:105160009800002090B0020890B587B002AF02000E
:10517000FB1D1A703C4A3D4B1100180020F042FE06
:105180003A4B1800FAF7CAFF03009AB23749FB1DE1
:10519000187801235B420093322310F0ADFC0F23FB
:1051A000FB1801221A703EE00E23FB1801221A7030
:1051B0002EE00F203B181B785A1E2D4B5200D35A5D
:1051C00019000E243B191B78013B802212021A4160
:1051D00013000B4016D03B181A783B191B78254951
:1051E000224820F00FFE214B1800FAF797FF03002A
:1051F0009AB21E49FB1D187801235B4200933223AB
:1052000010F07AFC0E217B181A787B1801321A7084
:105210000E23FB181B780A2BCBD90F217B181A7889
:105220007B1801321A70144B1B780F22BA181278AF
:105230009A42B9D9114A0D4B1100180020F0E2FD35
:105240000A4B1800FAF76AFF03009AB20749FB1DE0
:10525000187801235B420093322310F04DFCC046C6
:10526000BD4605B090BDC04694B00208980A002023
:1052700010180020B0B0020898000020C4B0020846
:10528000F0B589B002AF0200FB1D1A701223FB18A3
:1052900000221A8014F044FC0300FB60FB6800222B
:1052A0001A70C74B1B781A00C649C74B180020F06C
:1052B000A9FDC54AFB681100180020F02BFEC34B66
:1052C0001B781A00C249C04B180020F09BFDBE4A53
:1052D000FB681100180020F01DFEBE49BA480023EB
:1052E00000930423002220F08DFDB74AFB681100D3
:1052F000180020F00FFEB84AB849B34B180020F050
:1053000081FDB14AFB681100180020F003FEB44A89
:10531000B449AD4B180020F075FDAB4AFB68110095
:10532000180020F0F7FDB04AA74B1100180020F03C
:1053300069FDA54AFB681100180020F0EBFD17235A
:10534000FB1801221A7048E017243B191A78A74964
:105350009D4B180020F056FD9B4AFB681100180079
:1053600020F0D8FD3B191B78A14AD35C042B27D829
:105370009A00A04BD3181B689F469F4A924B11007E
:10538000180020F03FFD1CE09C4A8F4B11001800D4
:1053900020F038FD15E09A4A8B4B1100180020F0E0
:1053A00031FD0EE0974A884B1100180020F02AFDCD
:1053B00007E0954A844B1100180020F023FD00E01F
:1053C000C046814AFB681100180020F0A3FD172198
:1053D0007B181A787B1801321A701723FB181B7878
:1053E000052BB1D9894A784B1100180020F00AFD2D
:1053F000754AFB681100180020F08CFD1623FB187D
:1054000001221A7043E016217B181B785A1E804B2C
:105410009200D3581B68002B0DD17B181A787D4958
:10542000694B180020F0EEFC674AFB681100180079
:1054300020F070FD25E01626BB191C78BB191B78DF
:105440005A1E734B9200D3589B6A18000AF0E2FF71
:1054500003001D00BB191B785A1E6F4B9200D358D6
:1054600018000AF0D7FF03006C49574800932B003F
:10547000220020F0C7FC544AFB681100180020F0FD
:1054800049FD16217B181A787B1801321A701623F1
:10549000FB181B78062BB6D9FB681800FAF73EFEFE
:1054A00003001A00FB689A185D4B100019000323D3
:1054B0001A0020F046FEFB681800FAF72FFE0300E2
:1054C0001A00FB689A18574B100019001D231A0088
:1054D00020F037FEFB681800FAF720FE02001223C6
:1054E000FB181A801523FB1801221A7023E0344B95
:1054F0001B785A1E4C4B5200D35A190015203B18EA
:105500001B78013B802212021A4113000B400CD081
:105510003B181A7845492C4B180020F073FC2A4A96
:10552000FB681100180020F0F5FC15217B181A7893
:105530007B1801321A701523FB181B78052BD6D95E
:105540001223FB181C88FB681800FAF7E7FD03001C
:105550009C420ED1FB681800FAF7E0FD03001A0028
:10556000FB689A18324B1000190005231A0020F02E
:10557000E8FDFB681800FAF7D1FD03001A00FB688C
:105580009A18274B1000190003231A0020F0D9FDA8
:10559000FB1D1B78002B0ED0FB681800FAF7BEFD30
:1055A00003009AB2F968FB1D187801235B4200934F
:1055B000322310F0A1FAC046BD4607B0F0BDC04688
:1055C00099000020E4B00208980A0020880B00200F
:1055D00000B102081CB102083CB1020848B102083F
:1055E00060B102086CB1020888B102089CB10208DF
:1055F000980B0020A0B20208A4B10208ACB10208C6
:10560000C4B10208D0B10208ECB102080CB2020821
:10561000702E002024B20208F41E002040B20208BE
:105620008CB0020870B202081018002090B2020874
:1056300098B2020890B585B000AF78600E23FB18D1
:1056400000221A700F23FB1800221A704B4A7B6845
:1056500011001800FAF758FD031E03D1484B1B78C0
:105660001BB286E0474A7B6811001800FAF74CFD30
:10567000031E01D1FF237CE07B681B78232B25D1FF
:105680007B68013318001FF036F802000E217B18EA
:105690001A700A00BB181B78002B0AD03A4B1B78F3
:1056A0001100BA1812789A4203D87B181B781BB2E3
:1056B0005FE0334B1B780E22BA1812789A4203D15E
:1056C0002F4B1B781BB254E0662352E00F23FB18CC
:1056D00000221A701DE00F243B191A7813009B005A
:1056E0009B185B00294A9A187B6811001800FAF78A
:1056F0000BFD031E07D17B681B78002B03D03B19E1
:105700001B781BB235E00F217B181A787B18013209
:105710001A701D4B1B780F217A1812789A42DAD32F
:105720007B1800221A701EE00F243B191A78130010
:105730009B009B185B00164A9A187B6811001800A2
:10574000FAF7E2FC031E08D13B191B781BB21B02BF
:105750001BB2FE2213431BB20BE00F217B181A78F9
:105760007B1801321A700F23FB181B78092BDBD929
:1057700064231800BD4605B090BDC046B4B202080F
:1057800099000020B8B2020898000020E817002015
:10579000EC0A0020B0B586B000AF02003960FB1DF6
:1057A0001A701323FB1800221A7000237B61002358
:1057B0007B610FE07B699A00404BD2183B68110077
:1057C0001800FAF7A1FC031E01D1062371E07B69E2
:1057D00001337B617B69032BECDD01237B6112E0EC
:1057E0007A6913009B009B185B00354A9A183B6846
:1057F00011001800FAF788FC031E01D1072358E0B6
:105800007B6901337B612F4B1B781A007B699342C4
:10581000E6DB00237B6112E07A6913009B009B1892
:105820005B00294A9A183B6811001800FAF76CFCD3
:10583000031E01D107233CE07B6901337B617B6957
:10584000092BE9DD214B224A1A6019E01F4B1B6826
:105850001B681B68FB60FB681800FAF75FFC03001D
:10586000BB60BA68F9683B68180020F06EFB031E45
:1058700001D108231DE0154B1B685A68134B1A60B1
:10588000124B1B68002BE1D1FB1D1A7813009B0003
:105890009B185B000A4A9B183A681100180020F018
:1058A00048FC13257C19FEF74FFC030023707B197D
:1058B0001B781800BD4606B0B0BDC04684AB0208D8
:1058C000E817002098000020EC0A00204018002073
:1058D0000003002080B588B000AF02003960FB1DD6
:1058E0001A701723FB1800221A700023FB61002393
:1058F000BB610023FB6129E0FA6913009B009B1840
:105900005B005B4A9A183B6811001800FAF7FCFB31
:10591000031E18D1FB1D1B785A1E564B5200D35A3A
:105920001AB20121FB6999400B001BB2134319B253
:10593000FB1D1B785A1E89B24E4B5200D1521723C1
:10594000FB181B7890E0FB690133FB61FB69092BB5
:10595000D2DD0023BB610FE0BB699A00464BD21831
:105960003B6811001800FAF7CFFB031E01D1062394
:105970007AE0BB690133BB61BB69032BECDD01231A
:10598000BB6112E0BA6913009B009B185B003B4AA5
:105990009A183B6811001800FAF7B6FB031E01D1F4
:1059A000072361E0BB690133BB61354B1B781A00EB
:1059B000BB699342E6DB334B334A1A6019E0314B43
:1059C0001B681B681B683B613B691800FAF7A6FB64
:1059D0000300FB60FA6839693B68180020F0B5FAEB
:1059E000031E01D108233FE0264B1B685A68254B54
:1059F0001A60244B1B68002BE1D10023FB6118E0E7
:105A00001B49FA6913009B009B185B005B5C002B31
:105A10000CD1FA6913009B009B185B00144A9B1879
:105A20003A681100180020F084FB05E0FB6901339F
:105A3000FB61FB69092BE3DDFB1D1B785A1E0D4B37
:105A40005200D35A1AB20121FB6999400B001BB2D4
:105A5000134319B2FB1D1B785A1E89B2054B520025
:105A6000D1521723FB181B781800BD4608B080BD23
:105A7000EC0A00200C18002084AB0208E817002074
:105A800098000020441800200003002080B586B054
:105A900000AFB9607A6019000F23FB18021C1A705E
:105AA0000E203B180A1C1A701623FB1820221A809D
:105AB0007A6880231B059A4200D3D4E07B68DAB26F
:105AC000E54B1A70E44B3A1812785A703B181B7861
:105AD000082B00D9BDE19A00E04BD3181B689F4604
